{
	"contracts/Iplcontract.sol": {
		"IPL_AUCTION_SMART_CONTRACT": {
			"abi": [
				{
					"inputs": [],
					"stateMutability": "nonpayable",
					"type": "constructor"
				},
				{
					"inputs": [
						{
							"internalType": "address",
							"name": "",
							"type": "address"
						}
					],
					"name": "Amounts",
					"outputs": [
						{
							"internalType": "uint256",
							"name": "",
							"type": "uint256"
						}
					],
					"stateMutability": "view",
					"type": "function"
				},
				{
					"inputs": [],
					"name": "Auction",
					"outputs": [],
					"stateMutability": "payable",
					"type": "function"
				},
				{
					"inputs": [],
					"name": "AuctionCancel",
					"outputs": [],
					"stateMutability": "nonpayable",
					"type": "function"
				},
				{
					"inputs": [],
					"name": "AuctionResult",
					"outputs": [],
					"stateMutability": "nonpayable",
					"type": "function"
				},
				{
					"inputs": [],
					"name": "AuctionState",
					"outputs": [
						{
							"internalType": "enum IPL_AUCTION_SMART_CONTRACT.AuctionCurrentState",
							"name": "",
							"type": "uint8"
						}
					],
					"stateMutability": "view",
					"type": "function"
				},
				{
					"inputs": [],
					"name": "HighestAmountraiser",
					"outputs": [
						{
							"internalType": "address payable",
							"name": "",
							"type": "address"
						}
					],
					"stateMutability": "view",
					"type": "function"
				},
				{
					"inputs": [],
					"name": "HighestPayableAmount",
					"outputs": [
						{
							"internalType": "uint256",
							"name": "",
							"type": "uint256"
						}
					],
					"stateMutability": "view",
					"type": "function"
				},
				{
					"inputs": [],
					"name": "IncrementAmount",
					"outputs": [
						{
							"internalType": "uint256",
							"name": "",
							"type": "uint256"
						}
					],
					"stateMutability": "view",
					"type": "function"
				},
				{
					"inputs": [],
					"name": "auctionManager",
					"outputs": [
						{
							"internalType": "address payable",
							"name": "",
							"type": "address"
						}
					],
					"stateMutability": "view",
					"type": "function"
				},
				{
					"inputs": [],
					"name": "etBlock",
					"outputs": [
						{
							"internalType": "uint256",
							"name": "",
							"type": "uint256"
						}
					],
					"stateMutability": "view",
					"type": "function"
				},
				{
					"inputs": [],
					"name": "stBlock",
					"outputs": [
						{
							"internalType": "uint256",
							"name": "",
							"type": "uint256"
						}
					],
					"stateMutability": "view",
					"type": "function"
				}
			],
			"devdoc": {
				"kind": "dev",
				"methods": {},
				"version": 1
			},
			"evm": {
				"assembly": "    /* \"contracts/Iplcontract.sol\":57:3533  contract IPL_AUCTION_SMART_CONTRACT {... */\n  mstore(0x40, 0x80)\n    /* \"contracts/Iplcontract.sol\":522:741  constructor() {... */\n  callvalue\n  dup1\n  iszero\n  tag_1\n  jumpi\n  0x00\n  dup1\n  revert\ntag_1:\n  pop\n    /* \"contracts/Iplcontract.sol\":571:581  msg.sender */\n  caller\n    /* \"contracts/Iplcontract.sol\":546:560  auctionManager */\n  0x00\n  dup1\n    /* \"contracts/Iplcontract.sol\":546:582  auctionManager = payable(msg.sender) */\n  0x0100\n  exp\n  dup2\n  sload\n  dup2\n  0xffffffffffffffffffffffffffffffffffffffff\n  mul\n  not\n  and\n  swap1\n  dup4\n  0xffffffffffffffffffffffffffffffffffffffff\n  and\n  mul\n  or\n  swap1\n  sstore\n  pop\n    /* \"contracts/Iplcontract.sol\":602:614  block.number */\n  number\n    /* \"contracts/Iplcontract.sol\":592:599  stBlock */\n  0x02\n    /* \"contracts/Iplcontract.sol\":592:614  stBlock = block.number */\n  dup2\n  swap1\n  sstore\n  pop\n    /* \"contracts/Iplcontract.sol\":644:647  240 */\n  0xf0\n    /* \"contracts/Iplcontract.sol\":634:641  stBlock */\n  sload(0x02)\n    /* \"contracts/Iplcontract.sol\":634:647  stBlock + 240 */\n  tag_4\n  swap2\n  swap1\n  tag_5\n  jump\t// in\ntag_4:\n    /* \"contracts/Iplcontract.sol\":624:631  etBlock */\n  0x03\n    /* \"contracts/Iplcontract.sol\":624:647  etBlock = stBlock + 240 */\n  dup2\n  swap1\n  sstore\n  pop\n    /* \"contracts/Iplcontract.sol\":672:699  AuctionCurrentState.running */\n  0x01\n    /* \"contracts/Iplcontract.sol\":657:669  AuctionState */\n  0x06\n  0x00\n    /* \"contracts/Iplcontract.sol\":657:699  AuctionState = AuctionCurrentState.running */\n  0x0100\n  exp\n  dup2\n  sload\n  dup2\n  0xff\n  mul\n  not\n  and\n  swap1\n  dup4\n  0x03\n  dup2\n  gt\n  iszero\n  tag_6\n  jumpi\n  tag_7\n  tag_8\n  jump\t// in\ntag_7:\ntag_6:\n  mul\n  or\n  swap1\n  sstore\n  pop\n    /* \"contracts/Iplcontract.sol\":727:734  1 ether */\n  0x0de0b6b3a7640000\n    /* \"contracts/Iplcontract.sol\":709:724  IncrementAmount */\n  0x05\n    /* \"contracts/Iplcontract.sol\":709:734  IncrementAmount = 1 ether */\n  dup2\n  swap1\n  sstore\n  pop\n    /* \"contracts/Iplcontract.sol\":57:3533  contract IPL_AUCTION_SMART_CONTRACT {... */\n  jump(tag_9)\n    /* \"#utility.yul\":7:84   */\ntag_10:\n    /* \"#utility.yul\":44:51   */\n  0x00\n    /* \"#utility.yul\":73:78   */\n  dup2\n    /* \"#utility.yul\":62:78   */\n  swap1\n  pop\n    /* \"#utility.yul\":7:84   */\n  swap2\n  swap1\n  pop\n  jump\t// out\n    /* \"#utility.yul\":90:270   */\ntag_11:\n    /* \"#utility.yul\":138:215   */\n  0x4e487b7100000000000000000000000000000000000000000000000000000000\n    /* \"#utility.yul\":135:136   */\n  0x00\n    /* \"#utility.yul\":128:216   */\n  mstore\n    /* \"#utility.yul\":235:239   */\n  0x11\n    /* \"#utility.yul\":232:233   */\n  0x04\n    /* \"#utility.yul\":225:240   */\n  mstore\n    /* \"#utility.yul\":259:263   */\n  0x24\n    /* \"#utility.yul\":256:257   */\n  0x00\n    /* \"#utility.yul\":249:264   */\n  revert\n    /* \"#utility.yul\":276:467   */\ntag_5:\n    /* \"#utility.yul\":316:319   */\n  0x00\n    /* \"#utility.yul\":335:355   */\n  tag_16\n    /* \"#utility.yul\":353:354   */\n  dup3\n    /* \"#utility.yul\":335:355   */\n  tag_10\n  jump\t// in\ntag_16:\n    /* \"#utility.yul\":330:355   */\n  swap2\n  pop\n    /* \"#utility.yul\":369:389   */\n  tag_17\n    /* \"#utility.yul\":387:388   */\n  dup4\n    /* \"#utility.yul\":369:389   */\n  tag_10\n  jump\t// in\ntag_17:\n    /* \"#utility.yul\":364:389   */\n  swap3\n  pop\n    /* \"#utility.yul\":412:413   */\n  dup3\n    /* \"#utility.yul\":409:410   */\n  dup3\n    /* \"#utility.yul\":405:414   */\n  add\n    /* \"#utility.yul\":398:414   */\n  swap1\n  pop\n    /* \"#utility.yul\":433:436   */\n  dup1\n    /* \"#utility.yul\":430:431   */\n  dup3\n    /* \"#utility.yul\":427:437   */\n  gt\n    /* \"#utility.yul\":424:460   */\n  iszero\n  tag_18\n  jumpi\n    /* \"#utility.yul\":440:458   */\n  tag_19\n  tag_11\n  jump\t// in\ntag_19:\n    /* \"#utility.yul\":424:460   */\ntag_18:\n    /* \"#utility.yul\":276:467   */\n  swap3\n  swap2\n  pop\n  pop\n  jump\t// out\n    /* \"#utility.yul\":473:653   */\ntag_8:\n    /* \"#utility.yul\":521:598   */\n  0x4e487b7100000000000000000000000000000000000000000000000000000000\n    /* \"#utility.yul\":518:519   */\n  0x00\n    /* \"#utility.yul\":511:599   */\n  mstore\n    /* \"#utility.yul\":618:622   */\n  0x21\n    /* \"#utility.yul\":615:616   */\n  0x04\n    /* \"#utility.yul\":608:623   */\n  mstore\n    /* \"#utility.yul\":642:646   */\n  0x24\n    /* \"#utility.yul\":639:640   */\n  0x00\n    /* \"#utility.yul\":632:647   */\n  revert\n    /* \"contracts/Iplcontract.sol\":57:3533  contract IPL_AUCTION_SMART_CONTRACT {... */\ntag_9:\n  dataSize(sub_0)\n  dup1\n  dataOffset(sub_0)\n  0x00\n  codecopy\n  0x00\n  return\nstop\n\nsub_0: assembly {\n        /* \"contracts/Iplcontract.sol\":57:3533  contract IPL_AUCTION_SMART_CONTRACT {... */\n      mstore(0x40, 0x80)\n      jumpi(tag_1, lt(calldatasize, 0x04))\n      shr(0xe0, calldataload(0x00))\n      dup1\n      0x87a0f296\n      gt\n      tag_13\n      jumpi\n      dup1\n      0x87a0f296\n      eq\n      tag_7\n      jumpi\n      dup1\n      0x9495d224\n      eq\n      tag_8\n      jumpi\n      dup1\n      0x9806e31e\n      eq\n      tag_9\n      jumpi\n      dup1\n      0xb0192f9a\n      eq\n      tag_10\n      jumpi\n      dup1\n      0xc5389dbd\n      eq\n      tag_11\n      jumpi\n      dup1\n      0xf8b4aaa7\n      eq\n      tag_12\n      jumpi\n      jump(tag_1)\n    tag_13:\n      dup1\n      0x0f200a4b\n      eq\n      tag_2\n      jumpi\n      dup1\n      0x28a76ba5\n      eq\n      tag_3\n      jumpi\n      dup1\n      0x3e11fe79\n      eq\n      tag_4\n      jumpi\n      dup1\n      0x5d7e8533\n      eq\n      tag_5\n      jumpi\n      dup1\n      0x5fb3e119\n      eq\n      tag_6\n      jumpi\n    tag_1:\n      0x00\n      dup1\n      revert\n        /* \"contracts/Iplcontract.sol\":190:212  uint256 public stBlock */\n    tag_2:\n      callvalue\n      dup1\n      iszero\n      tag_14\n      jumpi\n      0x00\n      dup1\n      revert\n    tag_14:\n      pop\n      tag_15\n      tag_16\n      jump\t// in\n    tag_15:\n      mload(0x40)\n      tag_17\n      swap2\n      swap1\n      tag_18\n      jump\t// in\n    tag_17:\n      mload(0x40)\n      dup1\n      swap2\n      sub\n      swap1\n      return\n        /* \"contracts/Iplcontract.sol\":142:184  address payable public HighestAmountraiser */\n    tag_3:\n      callvalue\n      dup1\n      iszero\n      tag_19\n      jumpi\n      0x00\n      dup1\n      revert\n    tag_19:\n      pop\n      tag_20\n      tag_21\n      jump\t// in\n    tag_20:\n      mload(0x40)\n      tag_22\n      swap2\n      swap1\n      tag_23\n      jump\t// in\n    tag_22:\n      mload(0x40)\n      dup1\n      swap2\n      sub\n      swap1\n      return\n        /* \"contracts/Iplcontract.sol\":473:515  mapping(address => uint256) public Amounts */\n    tag_4:\n      callvalue\n      dup1\n      iszero\n      tag_24\n      jumpi\n      0x00\n      dup1\n      revert\n    tag_24:\n      pop\n      tag_25\n      0x04\n      dup1\n      calldatasize\n      sub\n      dup2\n      add\n      swap1\n      tag_26\n      swap2\n      swap1\n      tag_27\n      jump\t// in\n    tag_26:\n      tag_28\n      jump\t// in\n    tag_25:\n      mload(0x40)\n      tag_29\n      swap2\n      swap1\n      tag_18\n      jump\t// in\n    tag_29:\n      mload(0x40)\n      dup1\n      swap2\n      sub\n      swap1\n      return\n        /* \"contracts/Iplcontract.sol\":2461:3531  function AuctionResult() public {... */\n    tag_5:\n      callvalue\n      dup1\n      iszero\n      tag_30\n      jumpi\n      0x00\n      dup1\n      revert\n    tag_30:\n      pop\n      tag_31\n      tag_32\n      jump\t// in\n    tag_31:\n      stop\n        /* \"contracts/Iplcontract.sol\":1674:2455  function Auction() public payable onlyTeamOwner Started beforeEnded {... */\n    tag_6:\n      tag_33\n      tag_34\n      jump\t// in\n    tag_33:\n      stop\n        /* \"contracts/Iplcontract.sol\":427:466  AuctionCurrentState public AuctionState */\n    tag_7:\n      callvalue\n      dup1\n      iszero\n      tag_35\n      jumpi\n      0x00\n      dup1\n      revert\n    tag_35:\n      pop\n      tag_36\n      tag_37\n      jump\t// in\n    tag_36:\n      mload(0x40)\n      tag_38\n      swap2\n      swap1\n      tag_39\n      jump\t// in\n    tag_38:\n      mload(0x40)\n      dup1\n      swap2\n      sub\n      swap1\n      return\n        /* \"contracts/Iplcontract.sol\":218:240  uint256 public etBlock */\n    tag_8:\n      callvalue\n      dup1\n      iszero\n      tag_40\n      jumpi\n      0x00\n      dup1\n      revert\n    tag_40:\n      pop\n      tag_41\n      tag_42\n      jump\t// in\n    tag_41:\n      mload(0x40)\n      tag_43\n      swap2\n      swap1\n      tag_18\n      jump\t// in\n    tag_43:\n      mload(0x40)\n      dup1\n      swap2\n      sub\n      swap1\n      return\n        /* \"contracts/Iplcontract.sol\":246:281  uint256 public HighestPayableAmount */\n    tag_9:\n      callvalue\n      dup1\n      iszero\n      tag_44\n      jumpi\n      0x00\n      dup1\n      revert\n    tag_44:\n      pop\n      tag_45\n      tag_46\n      jump\t// in\n    tag_45:\n      mload(0x40)\n      tag_47\n      swap2\n      swap1\n      tag_18\n      jump\t// in\n    tag_47:\n      mload(0x40)\n      dup1\n      swap2\n      sub\n      swap1\n      return\n        /* \"contracts/Iplcontract.sol\":99:136  address payable public auctionManager */\n    tag_10:\n      callvalue\n      dup1\n      iszero\n      tag_48\n      jumpi\n      0x00\n      dup1\n      revert\n    tag_48:\n      pop\n      tag_49\n      tag_50\n      jump\t// in\n    tag_49:\n      mload(0x40)\n      tag_51\n      swap2\n      swap1\n      tag_23\n      jump\t// in\n    tag_51:\n      mload(0x40)\n      dup1\n      swap2\n      sub\n      swap1\n      return\n        /* \"contracts/Iplcontract.sol\":287:317  uint256 public IncrementAmount */\n    tag_11:\n      callvalue\n      dup1\n      iszero\n      tag_52\n      jumpi\n      0x00\n      dup1\n      revert\n    tag_52:\n      pop\n      tag_53\n      tag_54\n      jump\t// in\n    tag_53:\n      mload(0x40)\n      tag_55\n      swap2\n      swap1\n      tag_18\n      jump\t// in\n    tag_55:\n      mload(0x40)\n      dup1\n      swap2\n      sub\n      swap1\n      return\n        /* \"contracts/Iplcontract.sol\":1560:1668  function AuctionCancel() public onlyAuctionManger {... */\n    tag_12:\n      callvalue\n      dup1\n      iszero\n      tag_56\n      jumpi\n      0x00\n      dup1\n      revert\n    tag_56:\n      pop\n      tag_57\n      tag_58\n      jump\t// in\n    tag_57:\n      stop\n        /* \"contracts/Iplcontract.sol\":190:212  uint256 public stBlock */\n    tag_16:\n      sload(0x02)\n      dup2\n      jump\t// out\n        /* \"contracts/Iplcontract.sol\":142:184  address payable public HighestAmountraiser */\n    tag_21:\n      0x01\n      0x00\n      swap1\n      sload\n      swap1\n      0x0100\n      exp\n      swap1\n      div\n      0xffffffffffffffffffffffffffffffffffffffff\n      and\n      dup2\n      jump\t// out\n        /* \"contracts/Iplcontract.sol\":473:515  mapping(address => uint256) public Amounts */\n    tag_28:\n      mstore(0x20, 0x07)\n      dup1\n      0x00\n      mstore\n      keccak256(0x00, 0x40)\n      0x00\n      swap2\n      pop\n      swap1\n      pop\n      sload\n      dup2\n      jump\t// out\n        /* \"contracts/Iplcontract.sol\":2461:3531  function AuctionResult() public {... */\n    tag_32:\n        /* \"contracts/Iplcontract.sol\":2540:2566  AuctionCurrentState.cancel */\n      0x03\n        /* \"contracts/Iplcontract.sol\":2524:2566  AuctionState == AuctionCurrentState.cancel */\n      dup1\n      dup2\n      gt\n      iszero\n      tag_60\n      jumpi\n      tag_61\n      tag_62\n      jump\t// in\n    tag_61:\n    tag_60:\n        /* \"contracts/Iplcontract.sol\":2524:2536  AuctionState */\n      0x06\n      0x00\n      swap1\n      sload\n      swap1\n      0x0100\n      exp\n      swap1\n      div\n      0xff\n      and\n        /* \"contracts/Iplcontract.sol\":2524:2566  AuctionState == AuctionCurrentState.cancel */\n      0x03\n      dup2\n      gt\n      iszero\n      tag_63\n      jumpi\n      tag_64\n      tag_62\n      jump\t// in\n    tag_64:\n    tag_63:\n      eq\n        /* \"contracts/Iplcontract.sol\":2524:2628  AuctionState == AuctionCurrentState.cancel ||... */\n      dup1\n      tag_65\n      jumpi\n      pop\n        /* \"contracts/Iplcontract.sol\":2602:2628  AuctionCurrentState.ending */\n      0x02\n        /* \"contracts/Iplcontract.sol\":2586:2628  AuctionState == AuctionCurrentState.ending */\n      0x03\n      dup2\n      gt\n      iszero\n      tag_66\n      jumpi\n      tag_67\n      tag_62\n      jump\t// in\n    tag_67:\n    tag_66:\n        /* \"contracts/Iplcontract.sol\":2586:2598  AuctionState */\n      0x06\n      0x00\n      swap1\n      sload\n      swap1\n      0x0100\n      exp\n      swap1\n      div\n      0xff\n      and\n        /* \"contracts/Iplcontract.sol\":2586:2628  AuctionState == AuctionCurrentState.ending */\n      0x03\n      dup2\n      gt\n      iszero\n      tag_68\n      jumpi\n      tag_69\n      tag_62\n      jump\t// in\n    tag_69:\n    tag_68:\n      eq\n        /* \"contracts/Iplcontract.sol\":2524:2628  AuctionState == AuctionCurrentState.cancel ||... */\n    tag_65:\n        /* \"contracts/Iplcontract.sol\":2524:2670  AuctionState == AuctionCurrentState.cancel ||... */\n      dup1\n      tag_70\n      jumpi\n      pop\n        /* \"contracts/Iplcontract.sol\":2663:2670  etBlock */\n      sload(0x03)\n        /* \"contracts/Iplcontract.sol\":2648:2660  block.number */\n      number\n        /* \"contracts/Iplcontract.sol\":2648:2670  block.number > etBlock */\n      gt\n        /* \"contracts/Iplcontract.sol\":2524:2670  AuctionState == AuctionCurrentState.cancel ||... */\n    tag_70:\n        /* \"contracts/Iplcontract.sol\":2503:2680  require(... */\n      tag_71\n      jumpi\n      0x00\n      dup1\n      revert\n    tag_71:\n        /* \"contracts/Iplcontract.sol\":2713:2727  auctionManager */\n      0x00\n      dup1\n      sload\n      swap1\n      0x0100\n      exp\n      swap1\n      div\n      0xffffffffffffffffffffffffffffffffffffffff\n      and\n        /* \"contracts/Iplcontract.sol\":2699:2727  msg.sender == auctionManager */\n      0xffffffffffffffffffffffffffffffffffffffff\n      and\n        /* \"contracts/Iplcontract.sol\":2699:2709  msg.sender */\n      caller\n        /* \"contracts/Iplcontract.sol\":2699:2727  msg.sender == auctionManager */\n      0xffffffffffffffffffffffffffffffffffffffff\n      and\n      eq\n        /* \"contracts/Iplcontract.sol\":2699:2754  msg.sender == auctionManager || Amounts[msg.sender] > 0 */\n      dup1\n      tag_72\n      jumpi\n      pop\n        /* \"contracts/Iplcontract.sol\":2753:2754  0 */\n      0x00\n        /* \"contracts/Iplcontract.sol\":2731:2738  Amounts */\n      0x07\n        /* \"contracts/Iplcontract.sol\":2731:2750  Amounts[msg.sender] */\n      0x00\n        /* \"contracts/Iplcontract.sol\":2739:2749  msg.sender */\n      caller\n        /* \"contracts/Iplcontract.sol\":2731:2750  Amounts[msg.sender] */\n      0xffffffffffffffffffffffffffffffffffffffff\n      and\n      0xffffffffffffffffffffffffffffffffffffffff\n      and\n      dup2\n      mstore\n      0x20\n      add\n      swap1\n      dup2\n      mstore\n      0x20\n      add\n      0x00\n      keccak256\n      sload\n        /* \"contracts/Iplcontract.sol\":2731:2754  Amounts[msg.sender] > 0 */\n      gt\n        /* \"contracts/Iplcontract.sol\":2699:2754  msg.sender == auctionManager || Amounts[msg.sender] > 0 */\n    tag_72:\n        /* \"contracts/Iplcontract.sol\":2691:2755  require(msg.sender == auctionManager || Amounts[msg.sender] > 0) */\n      tag_73\n      jumpi\n      0x00\n      dup1\n      revert\n    tag_73:\n        /* \"contracts/Iplcontract.sol\":2766:2788  address payable person */\n      0x00\n        /* \"contracts/Iplcontract.sol\":2798:2811  uint256 value */\n      dup1\n        /* \"contracts/Iplcontract.sol\":2842:2868  AuctionCurrentState.cancel */\n      0x03\n        /* \"contracts/Iplcontract.sol\":2826:2868  AuctionState == AuctionCurrentState.cancel */\n      dup1\n      dup2\n      gt\n      iszero\n      tag_74\n      jumpi\n      tag_75\n      tag_62\n      jump\t// in\n    tag_75:\n    tag_74:\n        /* \"contracts/Iplcontract.sol\":2826:2838  AuctionState */\n      0x06\n      0x00\n      swap1\n      sload\n      swap1\n      0x0100\n      exp\n      swap1\n      div\n      0xff\n      and\n        /* \"contracts/Iplcontract.sol\":2826:2868  AuctionState == AuctionCurrentState.cancel */\n      0x03\n      dup2\n      gt\n      iszero\n      tag_76\n      jumpi\n      tag_77\n      tag_62\n      jump\t// in\n    tag_77:\n    tag_76:\n      sub\n        /* \"contracts/Iplcontract.sol\":2822:3458  if (AuctionState == AuctionCurrentState.cancel) {... */\n      tag_78\n      jumpi\n        /* \"contracts/Iplcontract.sol\":2901:2911  msg.sender */\n      caller\n        /* \"contracts/Iplcontract.sol\":2884:2912  person = payable(msg.sender) */\n      swap2\n      pop\n        /* \"contracts/Iplcontract.sol\":2934:2941  Amounts */\n      0x07\n        /* \"contracts/Iplcontract.sol\":2934:2953  Amounts[msg.sender] */\n      0x00\n        /* \"contracts/Iplcontract.sol\":2942:2952  msg.sender */\n      caller\n        /* \"contracts/Iplcontract.sol\":2934:2953  Amounts[msg.sender] */\n      0xffffffffffffffffffffffffffffffffffffffff\n      and\n      0xffffffffffffffffffffffffffffffffffffffff\n      and\n      dup2\n      mstore\n      0x20\n      add\n      swap1\n      dup2\n      mstore\n      0x20\n      add\n      0x00\n      keccak256\n      sload\n        /* \"contracts/Iplcontract.sol\":2926:2953  value = Amounts[msg.sender] */\n      swap1\n      pop\n        /* \"contracts/Iplcontract.sol\":2822:3458  if (AuctionState == AuctionCurrentState.cancel) {... */\n      jump(tag_79)\n    tag_78:\n        /* \"contracts/Iplcontract.sol\":3002:3016  auctionManager */\n      0x00\n      dup1\n      sload\n      swap1\n      0x0100\n      exp\n      swap1\n      div\n      0xffffffffffffffffffffffffffffffffffffffff\n      and\n        /* \"contracts/Iplcontract.sol\":2988:3016  msg.sender == auctionManager */\n      0xffffffffffffffffffffffffffffffffffffffff\n      and\n        /* \"contracts/Iplcontract.sol\":2988:2998  msg.sender */\n      caller\n        /* \"contracts/Iplcontract.sol\":2988:3016  msg.sender == auctionManager */\n      0xffffffffffffffffffffffffffffffffffffffff\n      and\n      sub\n        /* \"contracts/Iplcontract.sol\":2984:3448  if (msg.sender == auctionManager) {... */\n      tag_80\n      jumpi\n        /* \"contracts/Iplcontract.sol\":3045:3059  auctionManager */\n      0x00\n      dup1\n      sload\n      swap1\n      0x0100\n      exp\n      swap1\n      div\n      0xffffffffffffffffffffffffffffffffffffffff\n      and\n        /* \"contracts/Iplcontract.sol\":3036:3059  person = auctionManager */\n      swap2\n      pop\n        /* \"contracts/Iplcontract.sol\":3085:3105  HighestPayableAmount */\n      sload(0x04)\n        /* \"contracts/Iplcontract.sol\":3077:3105  value = HighestPayableAmount */\n      swap1\n      pop\n        /* \"contracts/Iplcontract.sol\":2984:3448  if (msg.sender == auctionManager) {... */\n      jump(tag_81)\n    tag_80:\n        /* \"contracts/Iplcontract.sol\":3162:3181  HighestAmountraiser */\n      0x01\n      0x00\n      swap1\n      sload\n      swap1\n      0x0100\n      exp\n      swap1\n      div\n      0xffffffffffffffffffffffffffffffffffffffff\n      and\n        /* \"contracts/Iplcontract.sol\":3148:3181  msg.sender == HighestAmountraiser */\n      0xffffffffffffffffffffffffffffffffffffffff\n      and\n        /* \"contracts/Iplcontract.sol\":3148:3158  msg.sender */\n      caller\n        /* \"contracts/Iplcontract.sol\":3148:3181  msg.sender == HighestAmountraiser */\n      0xffffffffffffffffffffffffffffffffffffffff\n      and\n      sub\n        /* \"contracts/Iplcontract.sol\":3144:3434  if (msg.sender == HighestAmountraiser) {... */\n      tag_82\n      jumpi\n        /* \"contracts/Iplcontract.sol\":3214:3233  HighestAmountraiser */\n      0x01\n      0x00\n      swap1\n      sload\n      swap1\n      0x0100\n      exp\n      swap1\n      div\n      0xffffffffffffffffffffffffffffffffffffffff\n      and\n        /* \"contracts/Iplcontract.sol\":3205:3233  person = HighestAmountraiser */\n      swap2\n      pop\n        /* \"contracts/Iplcontract.sol\":3263:3270  Amounts */\n      0x07\n        /* \"contracts/Iplcontract.sol\":3263:3291  Amounts[HighestAmountraiser] */\n      0x00\n        /* \"contracts/Iplcontract.sol\":3271:3290  HighestAmountraiser */\n      0x01\n      0x00\n      swap1\n      sload\n      swap1\n      0x0100\n      exp\n      swap1\n      div\n      0xffffffffffffffffffffffffffffffffffffffff\n      and\n        /* \"contracts/Iplcontract.sol\":3263:3291  Amounts[HighestAmountraiser] */\n      0xffffffffffffffffffffffffffffffffffffffff\n      and\n      0xffffffffffffffffffffffffffffffffffffffff\n      and\n      dup2\n      mstore\n      0x20\n      add\n      swap1\n      dup2\n      mstore\n      0x20\n      add\n      0x00\n      keccak256\n      sload\n        /* \"contracts/Iplcontract.sol\":3255:3291  value = Amounts[HighestAmountraiser] */\n      swap1\n      pop\n        /* \"contracts/Iplcontract.sol\":3144:3434  if (msg.sender == HighestAmountraiser) {... */\n      jump(tag_83)\n    tag_82:\n        /* \"contracts/Iplcontract.sol\":3355:3365  msg.sender */\n      caller\n        /* \"contracts/Iplcontract.sol\":3338:3366  person = payable(msg.sender) */\n      swap2\n      pop\n        /* \"contracts/Iplcontract.sol\":3396:3403  Amounts */\n      0x07\n        /* \"contracts/Iplcontract.sol\":3396:3415  Amounts[msg.sender] */\n      0x00\n        /* \"contracts/Iplcontract.sol\":3404:3414  msg.sender */\n      caller\n        /* \"contracts/Iplcontract.sol\":3396:3415  Amounts[msg.sender] */\n      0xffffffffffffffffffffffffffffffffffffffff\n      and\n      0xffffffffffffffffffffffffffffffffffffffff\n      and\n      dup2\n      mstore\n      0x20\n      add\n      swap1\n      dup2\n      mstore\n      0x20\n      add\n      0x00\n      keccak256\n      sload\n        /* \"contracts/Iplcontract.sol\":3388:3415  value = Amounts[msg.sender] */\n      swap1\n      pop\n        /* \"contracts/Iplcontract.sol\":3144:3434  if (msg.sender == HighestAmountraiser) {... */\n    tag_83:\n        /* \"contracts/Iplcontract.sol\":2984:3448  if (msg.sender == auctionManager) {... */\n    tag_81:\n        /* \"contracts/Iplcontract.sol\":2822:3458  if (AuctionState == AuctionCurrentState.cancel) {... */\n    tag_79:\n        /* \"contracts/Iplcontract.sol\":3490:3491  0 */\n      0x00\n        /* \"contracts/Iplcontract.sol\":3468:3475  Amounts */\n      0x07\n        /* \"contracts/Iplcontract.sol\":3468:3487  Amounts[msg.sender] */\n      0x00\n        /* \"contracts/Iplcontract.sol\":3476:3486  msg.sender */\n      caller\n        /* \"contracts/Iplcontract.sol\":3468:3487  Amounts[msg.sender] */\n      0xffffffffffffffffffffffffffffffffffffffff\n      and\n      0xffffffffffffffffffffffffffffffffffffffff\n      and\n      dup2\n      mstore\n      0x20\n      add\n      swap1\n      dup2\n      mstore\n      0x20\n      add\n      0x00\n      keccak256\n        /* \"contracts/Iplcontract.sol\":3468:3491  Amounts[msg.sender] = 0 */\n      dup2\n      swap1\n      sstore\n      pop\n        /* \"contracts/Iplcontract.sol\":3502:3508  person */\n      dup2\n        /* \"contracts/Iplcontract.sol\":3502:3517  person.transfer */\n      0xffffffffffffffffffffffffffffffffffffffff\n      and\n        /* \"contracts/Iplcontract.sol\":3502:3524  person.transfer(value) */\n      0x08fc\n        /* \"contracts/Iplcontract.sol\":3518:3523  value */\n      dup3\n        /* \"contracts/Iplcontract.sol\":3502:3524  person.transfer(value) */\n      swap1\n      dup2\n      iszero\n      mul\n      swap1\n      mload(0x40)\n      0x00\n      mload(0x40)\n      dup1\n      dup4\n      sub\n      dup2\n      dup6\n      dup9\n      dup9\n      call\n      swap4\n      pop\n      pop\n      pop\n      pop\n      iszero\n      dup1\n      iszero\n      tag_85\n      jumpi\n      returndatasize\n      0x00\n      dup1\n      returndatacopy\n      revert(0x00, returndatasize)\n    tag_85:\n      pop\n        /* \"contracts/Iplcontract.sol\":2493:3531  {... */\n      pop\n      pop\n        /* \"contracts/Iplcontract.sol\":2461:3531  function AuctionResult() public {... */\n      jump\t// out\n        /* \"contracts/Iplcontract.sol\":1674:2455  function Auction() public payable onlyTeamOwner Started beforeEnded {... */\n    tag_34:\n        /* \"contracts/Iplcontract.sol\":804:818  auctionManager */\n      0x00\n      dup1\n      sload\n      swap1\n      0x0100\n      exp\n      swap1\n      div\n      0xffffffffffffffffffffffffffffffffffffffff\n      and\n        /* \"contracts/Iplcontract.sol\":790:818  msg.sender != auctionManager */\n      0xffffffffffffffffffffffffffffffffffffffff\n      and\n        /* \"contracts/Iplcontract.sol\":790:800  msg.sender */\n      caller\n        /* \"contracts/Iplcontract.sol\":790:818  msg.sender != auctionManager */\n      0xffffffffffffffffffffffffffffffffffffffff\n      and\n      sub\n        /* \"contracts/Iplcontract.sol\":782:849  require(msg.sender != auctionManager, \"Auction Manager Cannot bid\") */\n      tag_87\n      jumpi\n      mload(0x40)\n      0x08c379a000000000000000000000000000000000000000000000000000000000\n      dup2\n      mstore\n      0x04\n      add\n      tag_88\n      swap1\n      tag_89\n      jump\t// in\n    tag_88:\n      mload(0x40)\n      dup1\n      swap2\n      sub\n      swap1\n      revert\n    tag_87:\n        /* \"contracts/Iplcontract.sol\":1095:1102  stBlock */\n      sload(0x02)\n        /* \"contracts/Iplcontract.sol\":1080:1092  block.number */\n      number\n        /* \"contracts/Iplcontract.sol\":1080:1102  block.number > stBlock */\n      gt\n        /* \"contracts/Iplcontract.sol\":1072:1103  require(block.number > stBlock) */\n      tag_91\n      jumpi\n      0x00\n      dup1\n      revert\n    tag_91:\n        /* \"contracts/Iplcontract.sol\":1183:1190  etBlock */\n      sload(0x03)\n        /* \"contracts/Iplcontract.sol\":1168:1180  block.number */\n      number\n        /* \"contracts/Iplcontract.sol\":1168:1190  block.number < etBlock */\n      lt\n        /* \"contracts/Iplcontract.sol\":1160:1191  require(block.number < etBlock) */\n      tag_93\n      jumpi\n      0x00\n      dup1\n      revert\n    tag_93:\n        /* \"contracts/Iplcontract.sol\":1776:1803  AuctionCurrentState.running */\n      0x01\n        /* \"contracts/Iplcontract.sol\":1760:1803  AuctionState == AuctionCurrentState.running */\n      0x03\n      dup2\n      gt\n      iszero\n      tag_95\n      jumpi\n      tag_96\n      tag_62\n      jump\t// in\n    tag_96:\n    tag_95:\n        /* \"contracts/Iplcontract.sol\":1760:1772  AuctionState */\n      0x06\n      0x00\n      swap1\n      sload\n      swap1\n      0x0100\n      exp\n      swap1\n      div\n      0xff\n      and\n        /* \"contracts/Iplcontract.sol\":1760:1803  AuctionState == AuctionCurrentState.running */\n      0x03\n      dup2\n      gt\n      iszero\n      tag_97\n      jumpi\n      tag_98\n      tag_62\n      jump\t// in\n    tag_98:\n    tag_97:\n      eq\n        /* \"contracts/Iplcontract.sol\":1752:1804  require(AuctionState == AuctionCurrentState.running) */\n      tag_99\n      jumpi\n      0x00\n      dup1\n      revert\n    tag_99:\n        /* \"contracts/Iplcontract.sol\":1834:1841  1 ether */\n      0x0de0b6b3a7640000\n        /* \"contracts/Iplcontract.sol\":1822:1831  msg.value */\n      callvalue\n        /* \"contracts/Iplcontract.sol\":1822:1841  msg.value > 1 ether */\n      gt\n        /* \"contracts/Iplcontract.sol\":1814:1842  require(msg.value > 1 ether) */\n      tag_100\n      jumpi\n      0x00\n      dup1\n      revert\n    tag_100:\n        /* \"contracts/Iplcontract.sol\":1853:1874  uint256 currentAmount */\n      0x00\n        /* \"contracts/Iplcontract.sol\":1899:1908  msg.value */\n      callvalue\n        /* \"contracts/Iplcontract.sol\":1877:1884  Amounts */\n      0x07\n        /* \"contracts/Iplcontract.sol\":1877:1896  Amounts[msg.sender] */\n      0x00\n        /* \"contracts/Iplcontract.sol\":1885:1895  msg.sender */\n      caller\n        /* \"contracts/Iplcontract.sol\":1877:1896  Amounts[msg.sender] */\n      0xffffffffffffffffffffffffffffffffffffffff\n      and\n      0xffffffffffffffffffffffffffffffffffffffff\n      and\n      dup2\n      mstore\n      0x20\n      add\n      swap1\n      dup2\n      mstore\n      0x20\n      add\n      0x00\n      keccak256\n      sload\n        /* \"contracts/Iplcontract.sol\":1877:1908  Amounts[msg.sender] + msg.value */\n      tag_101\n      swap2\n      swap1\n      tag_102\n      jump\t// in\n    tag_101:\n        /* \"contracts/Iplcontract.sol\":1853:1908  uint256 currentAmount = Amounts[msg.sender] + msg.value */\n      swap1\n      pop\n        /* \"contracts/Iplcontract.sol\":1942:1962  HighestPayableAmount */\n      sload(0x04)\n        /* \"contracts/Iplcontract.sol\":1926:1939  currentAmount */\n      dup2\n        /* \"contracts/Iplcontract.sol\":1926:1962  currentAmount > HighestPayableAmount */\n      gt\n        /* \"contracts/Iplcontract.sol\":1918:1963  require(currentAmount > HighestPayableAmount) */\n      tag_103\n      jumpi\n      0x00\n      dup1\n      revert\n    tag_103:\n        /* \"contracts/Iplcontract.sol\":1995:2008  currentAmount */\n      dup1\n        /* \"contracts/Iplcontract.sol\":1973:1980  Amounts */\n      0x07\n        /* \"contracts/Iplcontract.sol\":1973:1992  Amounts[msg.sender] */\n      0x00\n        /* \"contracts/Iplcontract.sol\":1981:1991  msg.sender */\n      caller\n        /* \"contracts/Iplcontract.sol\":1973:1992  Amounts[msg.sender] */\n      0xffffffffffffffffffffffffffffffffffffffff\n      and\n      0xffffffffffffffffffffffffffffffffffffffff\n      and\n      dup2\n      mstore\n      0x20\n      add\n      swap1\n      dup2\n      mstore\n      0x20\n      add\n      0x00\n      keccak256\n        /* \"contracts/Iplcontract.sol\":1973:2008  Amounts[msg.sender] = currentAmount */\n      dup2\n      swap1\n      sstore\n      pop\n        /* \"contracts/Iplcontract.sol\":2038:2045  Amounts */\n      0x07\n        /* \"contracts/Iplcontract.sol\":2038:2066  Amounts[HighestAmountraiser] */\n      0x00\n        /* \"contracts/Iplcontract.sol\":2046:2065  HighestAmountraiser */\n      0x01\n      0x00\n      swap1\n      sload\n      swap1\n      0x0100\n      exp\n      swap1\n      div\n      0xffffffffffffffffffffffffffffffffffffffff\n      and\n        /* \"contracts/Iplcontract.sol\":2038:2066  Amounts[HighestAmountraiser] */\n      0xffffffffffffffffffffffffffffffffffffffff\n      and\n      0xffffffffffffffffffffffffffffffffffffffff\n      and\n      dup2\n      mstore\n      0x20\n      add\n      swap1\n      dup2\n      mstore\n      0x20\n      add\n      0x00\n      keccak256\n      sload\n        /* \"contracts/Iplcontract.sol\":2022:2035  currentAmount */\n      dup2\n        /* \"contracts/Iplcontract.sol\":2022:2066  currentAmount < Amounts[HighestAmountraiser] */\n      lt\n        /* \"contracts/Iplcontract.sol\":2018:2449  if (currentAmount < Amounts[HighestAmountraiser]) {... */\n      iszero\n      tag_104\n      jumpi\n        /* \"contracts/Iplcontract.sol\":2105:2217  min(... */\n      tag_105\n        /* \"contracts/Iplcontract.sol\":2142:2157  IncrementAmount */\n      sload(0x05)\n        /* \"contracts/Iplcontract.sol\":2126:2139  currentAmount */\n      dup3\n        /* \"contracts/Iplcontract.sol\":2126:2157  currentAmount + IncrementAmount */\n      tag_106\n      swap2\n      swap1\n      tag_102\n      jump\t// in\n    tag_106:\n        /* \"contracts/Iplcontract.sol\":2175:2182  Amounts */\n      0x07\n        /* \"contracts/Iplcontract.sol\":2175:2203  Amounts[HighestAmountraiser] */\n      0x00\n        /* \"contracts/Iplcontract.sol\":2183:2202  HighestAmountraiser */\n      0x01\n      0x00\n      swap1\n      sload\n      swap1\n      0x0100\n      exp\n      swap1\n      div\n      0xffffffffffffffffffffffffffffffffffffffff\n      and\n        /* \"contracts/Iplcontract.sol\":2175:2203  Amounts[HighestAmountraiser] */\n      0xffffffffffffffffffffffffffffffffffffffff\n      and\n      0xffffffffffffffffffffffffffffffffffffffff\n      and\n      dup2\n      mstore\n      0x20\n      add\n      swap1\n      dup2\n      mstore\n      0x20\n      add\n      0x00\n      keccak256\n      sload\n        /* \"contracts/Iplcontract.sol\":2105:2108  min */\n      tag_107\n        /* \"contracts/Iplcontract.sol\":2105:2217  min(... */\n      jump\t// in\n    tag_105:\n        /* \"contracts/Iplcontract.sol\":2082:2102  HighestPayableAmount */\n      0x04\n        /* \"contracts/Iplcontract.sol\":2082:2217  HighestPayableAmount = min(... */\n      dup2\n      swap1\n      sstore\n      pop\n        /* \"contracts/Iplcontract.sol\":2018:2449  if (currentAmount < Amounts[HighestAmountraiser]) {... */\n      jump(tag_108)\n    tag_104:\n        /* \"contracts/Iplcontract.sol\":2271:2383  min(... */\n      tag_109\n        /* \"contracts/Iplcontract.sol\":2292:2305  currentAmount */\n      dup2\n        /* \"contracts/Iplcontract.sol\":2354:2369  IncrementAmount */\n      sload(0x05)\n        /* \"contracts/Iplcontract.sol\":2323:2330  Amounts */\n      0x07\n        /* \"contracts/Iplcontract.sol\":2323:2351  Amounts[HighestAmountraiser] */\n      0x00\n        /* \"contracts/Iplcontract.sol\":2331:2350  HighestAmountraiser */\n      0x01\n      0x00\n      swap1\n      sload\n      swap1\n      0x0100\n      exp\n      swap1\n      div\n      0xffffffffffffffffffffffffffffffffffffffff\n      and\n        /* \"contracts/Iplcontract.sol\":2323:2351  Amounts[HighestAmountraiser] */\n      0xffffffffffffffffffffffffffffffffffffffff\n      and\n      0xffffffffffffffffffffffffffffffffffffffff\n      and\n      dup2\n      mstore\n      0x20\n      add\n      swap1\n      dup2\n      mstore\n      0x20\n      add\n      0x00\n      keccak256\n      sload\n        /* \"contracts/Iplcontract.sol\":2323:2369  Amounts[HighestAmountraiser] + IncrementAmount */\n      tag_110\n      swap2\n      swap1\n      tag_102\n      jump\t// in\n    tag_110:\n        /* \"contracts/Iplcontract.sol\":2271:2274  min */\n      tag_107\n        /* \"contracts/Iplcontract.sol\":2271:2383  min(... */\n      jump\t// in\n    tag_109:\n        /* \"contracts/Iplcontract.sol\":2248:2268  HighestPayableAmount */\n      0x04\n        /* \"contracts/Iplcontract.sol\":2248:2383  HighestPayableAmount = min(... */\n      dup2\n      swap1\n      sstore\n      pop\n        /* \"contracts/Iplcontract.sol\":2427:2437  msg.sender */\n      caller\n        /* \"contracts/Iplcontract.sol\":2397:2416  HighestAmountraiser */\n      0x01\n      0x00\n        /* \"contracts/Iplcontract.sol\":2397:2438  HighestAmountraiser = payable(msg.sender) */\n      0x0100\n      exp\n      dup2\n      sload\n      dup2\n      0xffffffffffffffffffffffffffffffffffffffff\n      mul\n      not\n      and\n      swap1\n      dup4\n      0xffffffffffffffffffffffffffffffffffffffff\n      and\n      mul\n      or\n      swap1\n      sstore\n      pop\n        /* \"contracts/Iplcontract.sol\":2018:2449  if (currentAmount < Amounts[HighestAmountraiser]) {... */\n    tag_108:\n        /* \"contracts/Iplcontract.sol\":1742:2455  {... */\n      pop\n        /* \"contracts/Iplcontract.sol\":1674:2455  function Auction() public payable onlyTeamOwner Started beforeEnded {... */\n      jump\t// out\n        /* \"contracts/Iplcontract.sol\":427:466  AuctionCurrentState public AuctionState */\n    tag_37:\n      0x06\n      0x00\n      swap1\n      sload\n      swap1\n      0x0100\n      exp\n      swap1\n      div\n      0xff\n      and\n      dup2\n      jump\t// out\n        /* \"contracts/Iplcontract.sol\":218:240  uint256 public etBlock */\n    tag_42:\n      sload(0x03)\n      dup2\n      jump\t// out\n        /* \"contracts/Iplcontract.sol\":246:281  uint256 public HighestPayableAmount */\n    tag_46:\n      sload(0x04)\n      dup2\n      jump\t// out\n        /* \"contracts/Iplcontract.sol\":99:136  address payable public auctionManager */\n    tag_50:\n      0x00\n      dup1\n      sload\n      swap1\n      0x0100\n      exp\n      swap1\n      div\n      0xffffffffffffffffffffffffffffffffffffffff\n      and\n      dup2\n      jump\t// out\n        /* \"contracts/Iplcontract.sol\":287:317  uint256 public IncrementAmount */\n    tag_54:\n      sload(0x05)\n      dup2\n      jump\t// out\n        /* \"contracts/Iplcontract.sol\":1560:1668  function AuctionCancel() public onlyAuctionManger {... */\n    tag_58:\n        /* \"contracts/Iplcontract.sol\":947:961  auctionManager */\n      0x00\n      dup1\n      sload\n      swap1\n      0x0100\n      exp\n      swap1\n      div\n      0xffffffffffffffffffffffffffffffffffffffff\n      and\n        /* \"contracts/Iplcontract.sol\":933:961  msg.sender == auctionManager */\n      0xffffffffffffffffffffffffffffffffffffffff\n      and\n        /* \"contracts/Iplcontract.sol\":933:943  msg.sender */\n      caller\n        /* \"contracts/Iplcontract.sol\":933:961  msg.sender == auctionManager */\n      0xffffffffffffffffffffffffffffffffffffffff\n      and\n      eq\n        /* \"contracts/Iplcontract.sol\":912:1019  require(... */\n      tag_112\n      jumpi\n      mload(0x40)\n      0x08c379a000000000000000000000000000000000000000000000000000000000\n      dup2\n      mstore\n      0x04\n      add\n      tag_113\n      swap1\n      tag_114\n      jump\t// in\n    tag_113:\n      mload(0x40)\n      dup1\n      swap2\n      sub\n      swap1\n      revert\n    tag_112:\n        /* \"contracts/Iplcontract.sol\":1635:1661  AuctionCurrentState.cancel */\n      0x03\n        /* \"contracts/Iplcontract.sol\":1620:1632  AuctionState */\n      0x06\n      0x00\n        /* \"contracts/Iplcontract.sol\":1620:1661  AuctionState = AuctionCurrentState.cancel */\n      0x0100\n      exp\n      dup2\n      sload\n      dup2\n      0xff\n      mul\n      not\n      and\n      swap1\n      dup4\n      0x03\n      dup2\n      gt\n      iszero\n      tag_116\n      jumpi\n      tag_117\n      tag_62\n      jump\t// in\n    tag_117:\n    tag_116:\n      mul\n      or\n      swap1\n      sstore\n      pop\n        /* \"contracts/Iplcontract.sol\":1560:1668  function AuctionCancel() public onlyAuctionManger {... */\n      jump\t// out\n        /* \"contracts/Iplcontract.sol\":1412:1554  function min(uint256 a, uint256 b) private pure returns (uint256) {... */\n    tag_107:\n        /* \"contracts/Iplcontract.sol\":1469:1476  uint256 */\n      0x00\n        /* \"contracts/Iplcontract.sol\":1497:1498  b */\n      dup2\n        /* \"contracts/Iplcontract.sol\":1492:1493  a */\n      dup4\n        /* \"contracts/Iplcontract.sol\":1492:1498  a <= b */\n      gt\n        /* \"contracts/Iplcontract.sol\":1488:1547  if (a <= b) {... */\n      tag_119\n      jumpi\n        /* \"contracts/Iplcontract.sol\":1521:1522  a */\n      dup3\n        /* \"contracts/Iplcontract.sol\":1514:1522  return a */\n      swap1\n      pop\n      jump(tag_118)\n        /* \"contracts/Iplcontract.sol\":1488:1547  if (a <= b) {... */\n    tag_119:\n        /* \"contracts/Iplcontract.sol\":1546:1547  b */\n      dup2\n        /* \"contracts/Iplcontract.sol\":1539:1547  return b */\n      swap1\n      pop\n        /* \"contracts/Iplcontract.sol\":1412:1554  function min(uint256 a, uint256 b) private pure returns (uint256) {... */\n    tag_118:\n      swap3\n      swap2\n      pop\n      pop\n      jump\t// out\n        /* \"#utility.yul\":7:84   */\n    tag_121:\n        /* \"#utility.yul\":44:51   */\n      0x00\n        /* \"#utility.yul\":73:78   */\n      dup2\n        /* \"#utility.yul\":62:78   */\n      swap1\n      pop\n        /* \"#utility.yul\":7:84   */\n      swap2\n      swap1\n      pop\n      jump\t// out\n        /* \"#utility.yul\":90:208   */\n    tag_122:\n        /* \"#utility.yul\":177:201   */\n      tag_145\n        /* \"#utility.yul\":195:200   */\n      dup2\n        /* \"#utility.yul\":177:201   */\n      tag_121\n      jump\t// in\n    tag_145:\n        /* \"#utility.yul\":172:175   */\n      dup3\n        /* \"#utility.yul\":165:202   */\n      mstore\n        /* \"#utility.yul\":90:208   */\n      pop\n      pop\n      jump\t// out\n        /* \"#utility.yul\":214:436   */\n    tag_18:\n        /* \"#utility.yul\":307:311   */\n      0x00\n        /* \"#utility.yul\":345:347   */\n      0x20\n        /* \"#utility.yul\":334:343   */\n      dup3\n        /* \"#utility.yul\":330:348   */\n      add\n        /* \"#utility.yul\":322:348   */\n      swap1\n      pop\n        /* \"#utility.yul\":358:429   */\n      tag_147\n        /* \"#utility.yul\":426:427   */\n      0x00\n        /* \"#utility.yul\":415:424   */\n      dup4\n        /* \"#utility.yul\":411:428   */\n      add\n        /* \"#utility.yul\":402:408   */\n      dup5\n        /* \"#utility.yul\":358:429   */\n      tag_122\n      jump\t// in\n    tag_147:\n        /* \"#utility.yul\":214:436   */\n      swap3\n      swap2\n      pop\n      pop\n      jump\t// out\n        /* \"#utility.yul\":442:568   */\n    tag_123:\n        /* \"#utility.yul\":479:486   */\n      0x00\n        /* \"#utility.yul\":519:561   */\n      0xffffffffffffffffffffffffffffffffffffffff\n        /* \"#utility.yul\":512:517   */\n      dup3\n        /* \"#utility.yul\":508:562   */\n      and\n        /* \"#utility.yul\":497:562   */\n      swap1\n      pop\n        /* \"#utility.yul\":442:568   */\n      swap2\n      swap1\n      pop\n      jump\t// out\n        /* \"#utility.yul\":574:678   */\n    tag_124:\n        /* \"#utility.yul\":619:626   */\n      0x00\n        /* \"#utility.yul\":648:672   */\n      tag_150\n        /* \"#utility.yul\":666:671   */\n      dup3\n        /* \"#utility.yul\":648:672   */\n      tag_123\n      jump\t// in\n    tag_150:\n        /* \"#utility.yul\":637:672   */\n      swap1\n      pop\n        /* \"#utility.yul\":574:678   */\n      swap2\n      swap1\n      pop\n      jump\t// out\n        /* \"#utility.yul\":684:826   */\n    tag_125:\n        /* \"#utility.yul\":787:819   */\n      tag_152\n        /* \"#utility.yul\":813:818   */\n      dup2\n        /* \"#utility.yul\":787:819   */\n      tag_124\n      jump\t// in\n    tag_152:\n        /* \"#utility.yul\":782:785   */\n      dup3\n        /* \"#utility.yul\":775:820   */\n      mstore\n        /* \"#utility.yul\":684:826   */\n      pop\n      pop\n      jump\t// out\n        /* \"#utility.yul\":832:1086   */\n    tag_23:\n        /* \"#utility.yul\":941:945   */\n      0x00\n        /* \"#utility.yul\":979:981   */\n      0x20\n        /* \"#utility.yul\":968:977   */\n      dup3\n        /* \"#utility.yul\":964:982   */\n      add\n        /* \"#utility.yul\":956:982   */\n      swap1\n      pop\n        /* \"#utility.yul\":992:1079   */\n      tag_154\n        /* \"#utility.yul\":1076:1077   */\n      0x00\n        /* \"#utility.yul\":1065:1074   */\n      dup4\n        /* \"#utility.yul\":1061:1078   */\n      add\n        /* \"#utility.yul\":1052:1058   */\n      dup5\n        /* \"#utility.yul\":992:1079   */\n      tag_125\n      jump\t// in\n    tag_154:\n        /* \"#utility.yul\":832:1086   */\n      swap3\n      swap2\n      pop\n      pop\n      jump\t// out\n        /* \"#utility.yul\":1173:1290   */\n    tag_127:\n        /* \"#utility.yul\":1282:1283   */\n      0x00\n        /* \"#utility.yul\":1279:1280   */\n      dup1\n        /* \"#utility.yul\":1272:1284   */\n      revert\n        /* \"#utility.yul\":1419:1515   */\n    tag_129:\n        /* \"#utility.yul\":1456:1463   */\n      0x00\n        /* \"#utility.yul\":1485:1509   */\n      tag_159\n        /* \"#utility.yul\":1503:1508   */\n      dup3\n        /* \"#utility.yul\":1485:1509   */\n      tag_123\n      jump\t// in\n    tag_159:\n        /* \"#utility.yul\":1474:1509   */\n      swap1\n      pop\n        /* \"#utility.yul\":1419:1515   */\n      swap2\n      swap1\n      pop\n      jump\t// out\n        /* \"#utility.yul\":1521:1643   */\n    tag_130:\n        /* \"#utility.yul\":1594:1618   */\n      tag_161\n        /* \"#utility.yul\":1612:1617   */\n      dup2\n        /* \"#utility.yul\":1594:1618   */\n      tag_129\n      jump\t// in\n    tag_161:\n        /* \"#utility.yul\":1587:1592   */\n      dup2\n        /* \"#utility.yul\":1584:1619   */\n      eq\n        /* \"#utility.yul\":1574:1637   */\n      tag_162\n      jumpi\n        /* \"#utility.yul\":1633:1634   */\n      0x00\n        /* \"#utility.yul\":1630:1631   */\n      dup1\n        /* \"#utility.yul\":1623:1635   */\n      revert\n        /* \"#utility.yul\":1574:1637   */\n    tag_162:\n        /* \"#utility.yul\":1521:1643   */\n      pop\n      jump\t// out\n        /* \"#utility.yul\":1649:1788   */\n    tag_131:\n        /* \"#utility.yul\":1695:1700   */\n      0x00\n        /* \"#utility.yul\":1733:1739   */\n      dup2\n        /* \"#utility.yul\":1720:1740   */\n      calldataload\n        /* \"#utility.yul\":1711:1740   */\n      swap1\n      pop\n        /* \"#utility.yul\":1749:1782   */\n      tag_164\n        /* \"#utility.yul\":1776:1781   */\n      dup2\n        /* \"#utility.yul\":1749:1782   */\n      tag_130\n      jump\t// in\n    tag_164:\n        /* \"#utility.yul\":1649:1788   */\n      swap3\n      swap2\n      pop\n      pop\n      jump\t// out\n        /* \"#utility.yul\":1794:2123   */\n    tag_27:\n        /* \"#utility.yul\":1853:1859   */\n      0x00\n        /* \"#utility.yul\":1902:1904   */\n      0x20\n        /* \"#utility.yul\":1890:1899   */\n      dup3\n        /* \"#utility.yul\":1881:1888   */\n      dup5\n        /* \"#utility.yul\":1877:1900   */\n      sub\n        /* \"#utility.yul\":1873:1905   */\n      slt\n        /* \"#utility.yul\":1870:1989   */\n      iszero\n      tag_166\n      jumpi\n        /* \"#utility.yul\":1908:1987   */\n      tag_167\n      tag_127\n      jump\t// in\n    tag_167:\n        /* \"#utility.yul\":1870:1989   */\n    tag_166:\n        /* \"#utility.yul\":2028:2029   */\n      0x00\n        /* \"#utility.yul\":2053:2106   */\n      tag_168\n        /* \"#utility.yul\":2098:2105   */\n      dup5\n        /* \"#utility.yul\":2089:2095   */\n      dup3\n        /* \"#utility.yul\":2078:2087   */\n      dup6\n        /* \"#utility.yul\":2074:2096   */\n      add\n        /* \"#utility.yul\":2053:2106   */\n      tag_131\n      jump\t// in\n    tag_168:\n        /* \"#utility.yul\":2043:2106   */\n      swap2\n      pop\n        /* \"#utility.yul\":1999:2116   */\n      pop\n        /* \"#utility.yul\":1794:2123   */\n      swap3\n      swap2\n      pop\n      pop\n      jump\t// out\n        /* \"#utility.yul\":2129:2309   */\n    tag_62:\n        /* \"#utility.yul\":2177:2254   */\n      0x4e487b7100000000000000000000000000000000000000000000000000000000\n        /* \"#utility.yul\":2174:2175   */\n      0x00\n        /* \"#utility.yul\":2167:2255   */\n      mstore\n        /* \"#utility.yul\":2274:2278   */\n      0x21\n        /* \"#utility.yul\":2271:2272   */\n      0x04\n        /* \"#utility.yul\":2264:2279   */\n      mstore\n        /* \"#utility.yul\":2298:2302   */\n      0x24\n        /* \"#utility.yul\":2295:2296   */\n      0x00\n        /* \"#utility.yul\":2288:2303   */\n      revert\n        /* \"#utility.yul\":2315:2442   */\n    tag_132:\n        /* \"#utility.yul\":2410:2411   */\n      0x04\n        /* \"#utility.yul\":2403:2408   */\n      dup2\n        /* \"#utility.yul\":2400:2412   */\n      lt\n        /* \"#utility.yul\":2390:2436   */\n      tag_171\n      jumpi\n        /* \"#utility.yul\":2416:2434   */\n      tag_172\n      tag_62\n      jump\t// in\n    tag_172:\n        /* \"#utility.yul\":2390:2436   */\n    tag_171:\n        /* \"#utility.yul\":2315:2442   */\n      pop\n      jump\t// out\n        /* \"#utility.yul\":2448:2603   */\n    tag_133:\n        /* \"#utility.yul\":2507:2514   */\n      0x00\n        /* \"#utility.yul\":2536:2541   */\n      dup2\n        /* \"#utility.yul\":2525:2541   */\n      swap1\n      pop\n        /* \"#utility.yul\":2542:2597   */\n      tag_174\n        /* \"#utility.yul\":2591:2596   */\n      dup3\n        /* \"#utility.yul\":2542:2597   */\n      tag_132\n      jump\t// in\n    tag_174:\n        /* \"#utility.yul\":2448:2603   */\n      swap2\n      swap1\n      pop\n      jump\t// out\n        /* \"#utility.yul\":2609:2764   */\n    tag_134:\n        /* \"#utility.yul\":2679:2688   */\n      0x00\n        /* \"#utility.yul\":2712:2758   */\n      tag_176\n        /* \"#utility.yul\":2752:2757   */\n      dup3\n        /* \"#utility.yul\":2712:2758   */\n      tag_133\n      jump\t// in\n    tag_176:\n        /* \"#utility.yul\":2699:2758   */\n      swap1\n      pop\n        /* \"#utility.yul\":2609:2764   */\n      swap2\n      swap1\n      pop\n      jump\t// out\n        /* \"#utility.yul\":2770:2941   */\n    tag_135:\n        /* \"#utility.yul\":2877:2934   */\n      tag_178\n        /* \"#utility.yul\":2928:2933   */\n      dup2\n        /* \"#utility.yul\":2877:2934   */\n      tag_134\n      jump\t// in\n    tag_178:\n        /* \"#utility.yul\":2872:2875   */\n      dup3\n        /* \"#utility.yul\":2865:2935   */\n      mstore\n        /* \"#utility.yul\":2770:2941   */\n      pop\n      pop\n      jump\t// out\n        /* \"#utility.yul\":2947:3209   */\n    tag_39:\n        /* \"#utility.yul\":3060:3064   */\n      0x00\n        /* \"#utility.yul\":3098:3100   */\n      0x20\n        /* \"#utility.yul\":3087:3096   */\n      dup3\n        /* \"#utility.yul\":3083:3101   */\n      add\n        /* \"#utility.yul\":3075:3101   */\n      swap1\n      pop\n        /* \"#utility.yul\":3111:3202   */\n      tag_180\n        /* \"#utility.yul\":3199:3200   */\n      0x00\n        /* \"#utility.yul\":3188:3197   */\n      dup4\n        /* \"#utility.yul\":3184:3201   */\n      add\n        /* \"#utility.yul\":3175:3181   */\n      dup5\n        /* \"#utility.yul\":3111:3202   */\n      tag_135\n      jump\t// in\n    tag_180:\n        /* \"#utility.yul\":2947:3209   */\n      swap3\n      swap2\n      pop\n      pop\n      jump\t// out\n        /* \"#utility.yul\":3215:3384   */\n    tag_136:\n        /* \"#utility.yul\":3299:3310   */\n      0x00\n        /* \"#utility.yul\":3333:3339   */\n      dup3\n        /* \"#utility.yul\":3328:3331   */\n      dup3\n        /* \"#utility.yul\":3321:3340   */\n      mstore\n        /* \"#utility.yul\":3373:3377   */\n      0x20\n        /* \"#utility.yul\":3368:3371   */\n      dup3\n        /* \"#utility.yul\":3364:3378   */\n      add\n        /* \"#utility.yul\":3349:3378   */\n      swap1\n      pop\n        /* \"#utility.yul\":3215:3384   */\n      swap3\n      swap2\n      pop\n      pop\n      jump\t// out\n        /* \"#utility.yul\":3390:3566   */\n    tag_137:\n        /* \"#utility.yul\":3530:3558   */\n      0x41756374696f6e204d616e616765722043616e6e6f7420626964000000000000\n        /* \"#utility.yul\":3526:3527   */\n      0x00\n        /* \"#utility.yul\":3518:3524   */\n      dup3\n        /* \"#utility.yul\":3514:3528   */\n      add\n        /* \"#utility.yul\":3507:3559   */\n      mstore\n        /* \"#utility.yul\":3390:3566   */\n      pop\n      jump\t// out\n        /* \"#utility.yul\":3572:3938   */\n    tag_138:\n        /* \"#utility.yul\":3714:3717   */\n      0x00\n        /* \"#utility.yul\":3735:3802   */\n      tag_184\n        /* \"#utility.yul\":3799:3801   */\n      0x1a\n        /* \"#utility.yul\":3794:3797   */\n      dup4\n        /* \"#utility.yul\":3735:3802   */\n      tag_136\n      jump\t// in\n    tag_184:\n        /* \"#utility.yul\":3728:3802   */\n      swap2\n      pop\n        /* \"#utility.yul\":3811:3904   */\n      tag_185\n        /* \"#utility.yul\":3900:3903   */\n      dup3\n        /* \"#utility.yul\":3811:3904   */\n      tag_137\n      jump\t// in\n    tag_185:\n        /* \"#utility.yul\":3929:3931   */\n      0x20\n        /* \"#utility.yul\":3924:3927   */\n      dup3\n        /* \"#utility.yul\":3920:3932   */\n      add\n        /* \"#utility.yul\":3913:3932   */\n      swap1\n      pop\n        /* \"#utility.yul\":3572:3938   */\n      swap2\n      swap1\n      pop\n      jump\t// out\n        /* \"#utility.yul\":3944:4363   */\n    tag_89:\n        /* \"#utility.yul\":4110:4114   */\n      0x00\n        /* \"#utility.yul\":4148:4150   */\n      0x20\n        /* \"#utility.yul\":4137:4146   */\n      dup3\n        /* \"#utility.yul\":4133:4151   */\n      add\n        /* \"#utility.yul\":4125:4151   */\n      swap1\n      pop\n        /* \"#utility.yul\":4197:4206   */\n      dup2\n        /* \"#utility.yul\":4191:4195   */\n      dup2\n        /* \"#utility.yul\":4187:4207   */\n      sub\n        /* \"#utility.yul\":4183:4184   */\n      0x00\n        /* \"#utility.yul\":4172:4181   */\n      dup4\n        /* \"#utility.yul\":4168:4185   */\n      add\n        /* \"#utility.yul\":4161:4208   */\n      mstore\n        /* \"#utility.yul\":4225:4356   */\n      tag_187\n        /* \"#utility.yul\":4351:4355   */\n      dup2\n        /* \"#utility.yul\":4225:4356   */\n      tag_138\n      jump\t// in\n    tag_187:\n        /* \"#utility.yul\":4217:4356   */\n      swap1\n      pop\n        /* \"#utility.yul\":3944:4363   */\n      swap2\n      swap1\n      pop\n      jump\t// out\n        /* \"#utility.yul\":4369:4549   */\n    tag_139:\n        /* \"#utility.yul\":4417:4494   */\n      0x4e487b7100000000000000000000000000000000000000000000000000000000\n        /* \"#utility.yul\":4414:4415   */\n      0x00\n        /* \"#utility.yul\":4407:4495   */\n      mstore\n        /* \"#utility.yul\":4514:4518   */\n      0x11\n        /* \"#utility.yul\":4511:4512   */\n      0x04\n        /* \"#utility.yul\":4504:4519   */\n      mstore\n        /* \"#utility.yul\":4538:4542   */\n      0x24\n        /* \"#utility.yul\":4535:4536   */\n      0x00\n        /* \"#utility.yul\":4528:4543   */\n      revert\n        /* \"#utility.yul\":4555:4746   */\n    tag_102:\n        /* \"#utility.yul\":4595:4598   */\n      0x00\n        /* \"#utility.yul\":4614:4634   */\n      tag_190\n        /* \"#utility.yul\":4632:4633   */\n      dup3\n        /* \"#utility.yul\":4614:4634   */\n      tag_121\n      jump\t// in\n    tag_190:\n        /* \"#utility.yul\":4609:4634   */\n      swap2\n      pop\n        /* \"#utility.yul\":4648:4668   */\n      tag_191\n        /* \"#utility.yul\":4666:4667   */\n      dup4\n        /* \"#utility.yul\":4648:4668   */\n      tag_121\n      jump\t// in\n    tag_191:\n        /* \"#utility.yul\":4643:4668   */\n      swap3\n      pop\n        /* \"#utility.yul\":4691:4692   */\n      dup3\n        /* \"#utility.yul\":4688:4689   */\n      dup3\n        /* \"#utility.yul\":4684:4693   */\n      add\n        /* \"#utility.yul\":4677:4693   */\n      swap1\n      pop\n        /* \"#utility.yul\":4712:4715   */\n      dup1\n        /* \"#utility.yul\":4709:4710   */\n      dup3\n        /* \"#utility.yul\":4706:4716   */\n      gt\n        /* \"#utility.yul\":4703:4739   */\n      iszero\n      tag_192\n      jumpi\n        /* \"#utility.yul\":4719:4737   */\n      tag_193\n      tag_139\n      jump\t// in\n    tag_193:\n        /* \"#utility.yul\":4703:4739   */\n    tag_192:\n        /* \"#utility.yul\":4555:4746   */\n      swap3\n      swap2\n      pop\n      pop\n      jump\t// out\n        /* \"#utility.yul\":4752:4934   */\n    tag_140:\n        /* \"#utility.yul\":4892:4926   */\n      0x4f6e6c792041756374696f6e204d616e616765722043616e20646f2074686973\n        /* \"#utility.yul\":4888:4889   */\n      0x00\n        /* \"#utility.yul\":4880:4886   */\n      dup3\n        /* \"#utility.yul\":4876:4890   */\n      add\n        /* \"#utility.yul\":4869:4927   */\n      mstore\n        /* \"#utility.yul\":4752:4934   */\n      pop\n      jump\t// out\n        /* \"#utility.yul\":4940:5306   */\n    tag_141:\n        /* \"#utility.yul\":5082:5085   */\n      0x00\n        /* \"#utility.yul\":5103:5170   */\n      tag_196\n        /* \"#utility.yul\":5167:5169   */\n      0x20\n        /* \"#utility.yul\":5162:5165   */\n      dup4\n        /* \"#utility.yul\":5103:5170   */\n      tag_136\n      jump\t// in\n    tag_196:\n        /* \"#utility.yul\":5096:5170   */\n      swap2\n      pop\n        /* \"#utility.yul\":5179:5272   */\n      tag_197\n        /* \"#utility.yul\":5268:5271   */\n      dup3\n        /* \"#utility.yul\":5179:5272   */\n      tag_140\n      jump\t// in\n    tag_197:\n        /* \"#utility.yul\":5297:5299   */\n      0x20\n        /* \"#utility.yul\":5292:5295   */\n      dup3\n        /* \"#utility.yul\":5288:5300   */\n      add\n        /* \"#utility.yul\":5281:5300   */\n      swap1\n      pop\n        /* \"#utility.yul\":4940:5306   */\n      swap2\n      swap1\n      pop\n      jump\t// out\n        /* \"#utility.yul\":5312:5731   */\n    tag_114:\n        /* \"#utility.yul\":5478:5482   */\n      0x00\n        /* \"#utility.yul\":5516:5518   */\n      0x20\n        /* \"#utility.yul\":5505:5514   */\n      dup3\n        /* \"#utility.yul\":5501:5519   */\n      add\n        /* \"#utility.yul\":5493:5519   */\n      swap1\n      pop\n        /* \"#utility.yul\":5565:5574   */\n      dup2\n        /* \"#utility.yul\":5559:5563   */\n      dup2\n        /* \"#utility.yul\":5555:5575   */\n      sub\n        /* \"#utility.yul\":5551:5552   */\n      0x00\n        /* \"#utility.yul\":5540:5549   */\n      dup4\n        /* \"#utility.yul\":5536:5553   */\n      add\n        /* \"#utility.yul\":5529:5576   */\n      mstore\n        /* \"#utility.yul\":5593:5724   */\n      tag_199\n        /* \"#utility.yul\":5719:5723   */\n      dup2\n        /* \"#utility.yul\":5593:5724   */\n      tag_141\n      jump\t// in\n    tag_199:\n        /* \"#utility.yul\":5585:5724   */\n      swap1\n      pop\n        /* \"#utility.yul\":5312:5731   */\n      swap2\n      swap1\n      pop\n      jump\t// out\n\n    auxdata: 0xa2646970667358221220660de82487661546196fc4b199daf2bcf0891e4f66d5b0c364792bcf5086159a64736f6c634300081a0033\n}\n",
				"bytecode": {
					"linkReferences": {},
					"object": "608060405234801561000f575f80fd5b50335f806101000a81548173ffffffffffffffffffffffffffffffffffffffff021916908373ffffffffffffffffffffffffffffffffffffffff1602179055504360028190555060f060025461006591906100df565b600381905550600160065f6101000a81548160ff021916908360038111156100905761008f610112565b5b0217905550670de0b6b3a764000060058190555061013f565b5f819050919050565b7f4e487b71000000000000000000000000000000000000000000000000000000005f52601160045260245ffd5b5f6100e9826100a9565b91506100f4836100a9565b925082820190508082111561010c5761010b6100b2565b5b92915050565b7f4e487b71000000000000000000000000000000000000000000000000000000005f52602160045260245ffd5b610d908061014c5f395ff3fe60806040526004361061009b575f3560e01c806387a0f2961161006357806387a0f2961461014f5780639495d224146101795780639806e31e146101a3578063b0192f9a146101cd578063c5389dbd146101f7578063f8b4aaa7146102215761009b565b80630f200a4b1461009f57806328a76ba5146100c95780633e11fe79146100f35780635d7e85331461012f5780635fb3e11914610145575b5f80fd5b3480156100aa575f80fd5b506100b3610237565b6040516100c09190610ab3565b60405180910390f35b3480156100d4575f80fd5b506100dd61023d565b6040516100ea9190610b0b565b60405180910390f35b3480156100fe575f80fd5b5061011960048036038101906101149190610b63565b610262565b6040516101269190610ab3565b60405180910390f35b34801561013a575f80fd5b50610143610277565b005b61014d610649565b005b34801561015a575f80fd5b50610163610981565b6040516101709190610c01565b60405180910390f35b348015610184575f80fd5b5061018d610993565b60405161019a9190610ab3565b60405180910390f35b3480156101ae575f80fd5b506101b7610999565b6040516101c49190610ab3565b60405180910390f35b3480156101d8575f80fd5b506101e161099f565b6040516101ee9190610b0b565b60405180910390f35b348015610202575f80fd5b5061020b6109c2565b6040516102189190610ab3565b60405180910390f35b34801561022c575f80fd5b506102356109c8565b005b60025481565b60015f9054906101000a900473ffffffffffffffffffffffffffffffffffffffff1681565b6007602052805f5260405f205f915090505481565b60038081111561028a57610289610b8e565b5b60065f9054906101000a900460ff1660038111156102ab576102aa610b8e565b5b14806102e95750600260038111156102c6576102c5610b8e565b5b60065f9054906101000a900460ff1660038111156102e7576102e6610b8e565b5b145b806102f5575060035443115b6102fd575f80fd5b5f8054906101000a900473ffffffffffffffffffffffffffffffffffffffff1673ffffffffffffffffffffffffffffffffffffffff163373ffffffffffffffffffffffffffffffffffffffff16148061039257505f60075f3373ffffffffffffffffffffffffffffffffffffffff1673ffffffffffffffffffffffffffffffffffffffff1681526020019081526020015f2054115b61039a575f80fd5b5f806003808111156103af576103ae610b8e565b5b60065f9054906101000a900460ff1660038111156103d0576103cf610b8e565b5b0361041d5733915060075f3373ffffffffffffffffffffffffffffffffffffffff1673ffffffffffffffffffffffffffffffffffffffff1681526020019081526020015f205490506105bf565b5f8054906101000a900473ffffffffffffffffffffffffffffffffffffffff1673ffffffffffffffffffffffffffffffffffffffff163373ffffffffffffffffffffffffffffffffffffffff160361049b575f8054906101000a900473ffffffffffffffffffffffffffffffffffffffff16915060045490506105be565b60015f9054906101000a900473ffffffffffffffffffffffffffffffffffffffff1673ffffffffffffffffffffffffffffffffffffffff163373ffffffffffffffffffffffffffffffffffffffff16036105795760015f9054906101000a900473ffffffffffffffffffffffffffffffffffffffff16915060075f60015f9054906101000a900473ffffffffffffffffffffffffffffffffffffffff1673ffffffffffffffffffffffffffffffffffffffff1673ffffffffffffffffffffffffffffffffffffffff1681526020019081526020015f205490506105bd565b33915060075f3373ffffffffffffffffffffffffffffffffffffffff1673ffffffffffffffffffffffffffffffffffffffff1681526020019081526020015f205490505b5b5b5f60075f3373ffffffffffffffffffffffffffffffffffffffff1673ffffffffffffffffffffffffffffffffffffffff1681526020019081526020015f20819055508173ffffffffffffffffffffffffffffffffffffffff166108fc8290811502906040515f60405180830381858888f19350505050158015610644573d5f803e3d5ffd5b505050565b5f8054906101000a900473ffffffffffffffffffffffffffffffffffffffff1673ffffffffffffffffffffffffffffffffffffffff163373ffffffffffffffffffffffffffffffffffffffff16036106d6576040517f08c379a00000000000000000000000000000000000000000000000000000000081526004016106cd90610c74565b60405180910390fd5b60025443116106e3575f80fd5b60035443106106f0575f80fd5b6001600381111561070457610703610b8e565b5b60065f9054906101000a900460ff16600381111561072557610724610b8e565b5b1461072e575f80fd5b670de0b6b3a76400003411610741575f80fd5b5f3460075f3373ffffffffffffffffffffffffffffffffffffffff1673ffffffffffffffffffffffffffffffffffffffff1681526020019081526020015f205461078b9190610cbf565b9050600454811161079a575f80fd5b8060075f3373ffffffffffffffffffffffffffffffffffffffff1673ffffffffffffffffffffffffffffffffffffffff1681526020019081526020015f208190555060075f60015f9054906101000a900473ffffffffffffffffffffffffffffffffffffffff1673ffffffffffffffffffffffffffffffffffffffff1673ffffffffffffffffffffffffffffffffffffffff1681526020019081526020015f20548110156108c2576108b7600554826108539190610cbf565b60075f60015f9054906101000a900473ffffffffffffffffffffffffffffffffffffffff1673ffffffffffffffffffffffffffffffffffffffff1673ffffffffffffffffffffffffffffffffffffffff1681526020019081526020015f2054610a81565b60048190555061097e565b6109378160055460075f60015f9054906101000a900473ffffffffffffffffffffffffffffffffffffffff1673ffffffffffffffffffffffffffffffffffffffff1673ffffffffffffffffffffffffffffffffffffffff1681526020019081526020015f20546109329190610cbf565b610a81565b6004819055503360015f6101000a81548173ffffffffffffffffffffffffffffffffffffffff021916908373ffffffffffffffffffffffffffffffffffffffff1602179055505b50565b60065f9054906101000a900460ff1681565b60035481565b60045481565b5f8054906101000a900473ffffffffffffffffffffffffffffffffffffffff1681565b60055481565b5f8054906101000a900473ffffffffffffffffffffffffffffffffffffffff1673ffffffffffffffffffffffffffffffffffffffff163373ffffffffffffffffffffffffffffffffffffffff1614610a55576040517f08c379a0000000000000000000000000000000000000000000000000000000008152600401610a4c90610d3c565b60405180910390fd5b600360065f6101000a81548160ff02191690836003811115610a7a57610a79610b8e565b5b0217905550565b5f818311610a9157829050610a95565b8190505b92915050565b5f819050919050565b610aad81610a9b565b82525050565b5f602082019050610ac65f830184610aa4565b92915050565b5f73ffffffffffffffffffffffffffffffffffffffff82169050919050565b5f610af582610acc565b9050919050565b610b0581610aeb565b82525050565b5f602082019050610b1e5f830184610afc565b92915050565b5f80fd5b5f610b3282610acc565b9050919050565b610b4281610b28565b8114610b4c575f80fd5b50565b5f81359050610b5d81610b39565b92915050565b5f60208284031215610b7857610b77610b24565b5b5f610b8584828501610b4f565b91505092915050565b7f4e487b71000000000000000000000000000000000000000000000000000000005f52602160045260245ffd5b60048110610bcc57610bcb610b8e565b5b50565b5f819050610bdc82610bbb565b919050565b5f610beb82610bcf565b9050919050565b610bfb81610be1565b82525050565b5f602082019050610c145f830184610bf2565b92915050565b5f82825260208201905092915050565b7f41756374696f6e204d616e616765722043616e6e6f74206269640000000000005f82015250565b5f610c5e601a83610c1a565b9150610c6982610c2a565b602082019050919050565b5f6020820190508181035f830152610c8b81610c52565b9050919050565b7f4e487b71000000000000000000000000000000000000000000000000000000005f52601160045260245ffd5b5f610cc982610a9b565b9150610cd483610a9b565b9250828201905080821115610cec57610ceb610c92565b5b92915050565b7f4f6e6c792041756374696f6e204d616e616765722043616e20646f20746869735f82015250565b5f610d26602083610c1a565b9150610d3182610cf2565b602082019050919050565b5f6020820190508181035f830152610d5381610d1a565b905091905056fea2646970667358221220660de82487661546196fc4b199daf2bcf0891e4f66d5b0c364792bcf5086159a64736f6c634300081a0033",
					"opcodes": "PUSH1 0x80 PUSH1 0x40 MSTORE CALLVALUE DUP1 ISZERO PUSH2 0xF JUMPI PUSH0 DUP1 REVERT JUMPDEST POP CALLER PUSH0 DUP1 PUSH2 0x100 EXP DUP2 SLOAD DUP2 PUSH20 0xFFFFFFFFFFFFFFFFFFFFFFFFFFFFFFFFFFFFFFFF MUL NOT AND SWAP1 DUP4 PUSH20 0xFFFFFFFFFFFFFFFFFFFFFFFFFFFFFFFFFFFFFFFF AND MUL OR SWAP1 SSTORE POP NUMBER PUSH1 0x2 DUP2 SWAP1 SSTORE POP PUSH1 0xF0 PUSH1 0x2 SLOAD PUSH2 0x65 SWAP2 SWAP1 PUSH2 0xDF JUMP JUMPDEST PUSH1 0x3 DUP2 SWAP1 SSTORE POP PUSH1 0x1 PUSH1 0x6 PUSH0 PUSH2 0x100 EXP DUP2 SLOAD DUP2 PUSH1 0xFF MUL NOT AND SWAP1 DUP4 PUSH1 0x3 DUP2 GT ISZERO PUSH2 0x90 JUMPI PUSH2 0x8F PUSH2 0x112 JUMP JUMPDEST JUMPDEST MUL OR SWAP1 SSTORE POP PUSH8 0xDE0B6B3A7640000 PUSH1 0x5 DUP2 SWAP1 SSTORE POP PUSH2 0x13F JUMP JUMPDEST PUSH0 DUP2 SWAP1 POP SWAP2 SWAP1 POP JUMP JUMPDEST PUSH32 0x4E487B7100000000000000000000000000000000000000000000000000000000 PUSH0 MSTORE PUSH1 0x11 PUSH1 0x4 MSTORE PUSH1 0x24 PUSH0 REVERT JUMPDEST PUSH0 PUSH2 0xE9 DUP3 PUSH2 0xA9 JUMP JUMPDEST SWAP2 POP PUSH2 0xF4 DUP4 PUSH2 0xA9 JUMP JUMPDEST SWAP3 POP DUP3 DUP3 ADD SWAP1 POP DUP1 DUP3 GT ISZERO PUSH2 0x10C JUMPI PUSH2 0x10B PUSH2 0xB2 JUMP JUMPDEST JUMPDEST SWAP3 SWAP2 POP POP JUMP JUMPDEST PUSH32 0x4E487B7100000000000000000000000000000000000000000000000000000000 PUSH0 MSTORE PUSH1 0x21 PUSH1 0x4 MSTORE PUSH1 0x24 PUSH0 REVERT JUMPDEST PUSH2 0xD90 DUP1 PUSH2 0x14C PUSH0 CODECOPY PUSH0 RETURN INVALID PUSH1 0x80 PUSH1 0x40 MSTORE PUSH1 0x4 CALLDATASIZE LT PUSH2 0x9B JUMPI PUSH0 CALLDATALOAD PUSH1 0xE0 SHR DUP1 PUSH4 0x87A0F296 GT PUSH2 0x63 JUMPI DUP1 PUSH4 0x87A0F296 EQ PUSH2 0x14F JUMPI DUP1 PUSH4 0x9495D224 EQ PUSH2 0x179 JUMPI DUP1 PUSH4 0x9806E31E EQ PUSH2 0x1A3 JUMPI DUP1 PUSH4 0xB0192F9A EQ PUSH2 0x1CD JUMPI DUP1 PUSH4 0xC5389DBD EQ PUSH2 0x1F7 JUMPI DUP1 PUSH4 0xF8B4AAA7 EQ PUSH2 0x221 JUMPI PUSH2 0x9B JUMP JUMPDEST DUP1 PUSH4 0xF200A4B EQ PUSH2 0x9F JUMPI DUP1 PUSH4 0x28A76BA5 EQ PUSH2 0xC9 JUMPI DUP1 PUSH4 0x3E11FE79 EQ PUSH2 0xF3 JUMPI DUP1 PUSH4 0x5D7E8533 EQ PUSH2 0x12F JUMPI DUP1 PUSH4 0x5FB3E119 EQ PUSH2 0x145 JUMPI JUMPDEST PUSH0 DUP1 REVERT JUMPDEST CALLVALUE DUP1 ISZERO PUSH2 0xAA JUMPI PUSH0 DUP1 REVERT JUMPDEST POP PUSH2 0xB3 PUSH2 0x237 JUMP JUMPDEST PUSH1 0x40 MLOAD PUSH2 0xC0 SWAP2 SWAP1 PUSH2 0xAB3 JUMP JUMPDEST PUSH1 0x40 MLOAD DUP1 SWAP2 SUB SWAP1 RETURN JUMPDEST CALLVALUE DUP1 ISZERO PUSH2 0xD4 JUMPI PUSH0 DUP1 REVERT JUMPDEST POP PUSH2 0xDD PUSH2 0x23D JUMP JUMPDEST PUSH1 0x40 MLOAD PUSH2 0xEA SWAP2 SWAP1 PUSH2 0xB0B JUMP JUMPDEST PUSH1 0x40 MLOAD DUP1 SWAP2 SUB SWAP1 RETURN JUMPDEST CALLVALUE DUP1 ISZERO PUSH2 0xFE JUMPI PUSH0 DUP1 REVERT JUMPDEST POP PUSH2 0x119 PUSH1 0x4 DUP1 CALLDATASIZE SUB DUP2 ADD SWAP1 PUSH2 0x114 SWAP2 SWAP1 PUSH2 0xB63 JUMP JUMPDEST PUSH2 0x262 JUMP JUMPDEST PUSH1 0x40 MLOAD PUSH2 0x126 SWAP2 SWAP1 PUSH2 0xAB3 JUMP JUMPDEST PUSH1 0x40 MLOAD DUP1 SWAP2 SUB SWAP1 RETURN JUMPDEST CALLVALUE DUP1 ISZERO PUSH2 0x13A JUMPI PUSH0 DUP1 REVERT JUMPDEST POP PUSH2 0x143 PUSH2 0x277 JUMP JUMPDEST STOP JUMPDEST PUSH2 0x14D PUSH2 0x649 JUMP JUMPDEST STOP JUMPDEST CALLVALUE DUP1 ISZERO PUSH2 0x15A JUMPI PUSH0 DUP1 REVERT JUMPDEST POP PUSH2 0x163 PUSH2 0x981 JUMP JUMPDEST PUSH1 0x40 MLOAD PUSH2 0x170 SWAP2 SWAP1 PUSH2 0xC01 JUMP JUMPDEST PUSH1 0x40 MLOAD DUP1 SWAP2 SUB SWAP1 RETURN JUMPDEST CALLVALUE DUP1 ISZERO PUSH2 0x184 JUMPI PUSH0 DUP1 REVERT JUMPDEST POP PUSH2 0x18D PUSH2 0x993 JUMP JUMPDEST PUSH1 0x40 MLOAD PUSH2 0x19A SWAP2 SWAP1 PUSH2 0xAB3 JUMP JUMPDEST PUSH1 0x40 MLOAD DUP1 SWAP2 SUB SWAP1 RETURN JUMPDEST CALLVALUE DUP1 ISZERO PUSH2 0x1AE JUMPI PUSH0 DUP1 REVERT JUMPDEST POP PUSH2 0x1B7 PUSH2 0x999 JUMP JUMPDEST PUSH1 0x40 MLOAD PUSH2 0x1C4 SWAP2 SWAP1 PUSH2 0xAB3 JUMP JUMPDEST PUSH1 0x40 MLOAD DUP1 SWAP2 SUB SWAP1 RETURN JUMPDEST CALLVALUE DUP1 ISZERO PUSH2 0x1D8 JUMPI PUSH0 DUP1 REVERT JUMPDEST POP PUSH2 0x1E1 PUSH2 0x99F JUMP JUMPDEST PUSH1 0x40 MLOAD PUSH2 0x1EE SWAP2 SWAP1 PUSH2 0xB0B JUMP JUMPDEST PUSH1 0x40 MLOAD DUP1 SWAP2 SUB SWAP1 RETURN JUMPDEST CALLVALUE DUP1 ISZERO PUSH2 0x202 JUMPI PUSH0 DUP1 REVERT JUMPDEST POP PUSH2 0x20B PUSH2 0x9C2 JUMP JUMPDEST PUSH1 0x40 MLOAD PUSH2 0x218 SWAP2 SWAP1 PUSH2 0xAB3 JUMP JUMPDEST PUSH1 0x40 MLOAD DUP1 SWAP2 SUB SWAP1 RETURN JUMPDEST CALLVALUE DUP1 ISZERO PUSH2 0x22C JUMPI PUSH0 DUP1 REVERT JUMPDEST POP PUSH2 0x235 PUSH2 0x9C8 JUMP JUMPDEST STOP JUMPDEST PUSH1 0x2 SLOAD DUP2 JUMP JUMPDEST PUSH1 0x1 PUSH0 SWAP1 SLOAD SWAP1 PUSH2 0x100 EXP SWAP1 DIV PUSH20 0xFFFFFFFFFFFFFFFFFFFFFFFFFFFFFFFFFFFFFFFF AND DUP2 JUMP JUMPDEST PUSH1 0x7 PUSH1 0x20 MSTORE DUP1 PUSH0 MSTORE PUSH1 0x40 PUSH0 KECCAK256 PUSH0 SWAP2 POP SWAP1 POP SLOAD DUP2 JUMP JUMPDEST PUSH1 0x3 DUP1 DUP2 GT ISZERO PUSH2 0x28A JUMPI PUSH2 0x289 PUSH2 0xB8E JUMP JUMPDEST JUMPDEST PUSH1 0x6 PUSH0 SWAP1 SLOAD SWAP1 PUSH2 0x100 EXP SWAP1 DIV PUSH1 0xFF AND PUSH1 0x3 DUP2 GT ISZERO PUSH2 0x2AB JUMPI PUSH2 0x2AA PUSH2 0xB8E JUMP JUMPDEST JUMPDEST EQ DUP1 PUSH2 0x2E9 JUMPI POP PUSH1 0x2 PUSH1 0x3 DUP2 GT ISZERO PUSH2 0x2C6 JUMPI PUSH2 0x2C5 PUSH2 0xB8E JUMP JUMPDEST JUMPDEST PUSH1 0x6 PUSH0 SWAP1 SLOAD SWAP1 PUSH2 0x100 EXP SWAP1 DIV PUSH1 0xFF AND PUSH1 0x3 DUP2 GT ISZERO PUSH2 0x2E7 JUMPI PUSH2 0x2E6 PUSH2 0xB8E JUMP JUMPDEST JUMPDEST EQ JUMPDEST DUP1 PUSH2 0x2F5 JUMPI POP PUSH1 0x3 SLOAD NUMBER GT JUMPDEST PUSH2 0x2FD JUMPI PUSH0 DUP1 REVERT JUMPDEST PUSH0 DUP1 SLOAD SWAP1 PUSH2 0x100 EXP SWAP1 DIV PUSH20 0xFFFFFFFFFFFFFFFFFFFFFFFFFFFFFFFFFFFFFFFF AND PUSH20 0xFFFFFFFFFFFFFFFFFFFFFFFFFFFFFFFFFFFFFFFF AND CALLER PUSH20 0xFFFFFFFFFFFFFFFFFFFFFFFFFFFFFFFFFFFFFFFF AND EQ DUP1 PUSH2 0x392 JUMPI POP PUSH0 PUSH1 0x7 PUSH0 CALLER PUSH20 0xFFFFFFFFFFFFFFFFFFFFFFFFFFFFFFFFFFFFFFFF AND PUSH20 0xFFFFFFFFFFFFFFFFFFFFFFFFFFFFFFFFFFFFFFFF AND DUP2 MSTORE PUSH1 0x20 ADD SWAP1 DUP2 MSTORE PUSH1 0x20 ADD PUSH0 KECCAK256 SLOAD GT JUMPDEST PUSH2 0x39A JUMPI PUSH0 DUP1 REVERT JUMPDEST PUSH0 DUP1 PUSH1 0x3 DUP1 DUP2 GT ISZERO PUSH2 0x3AF JUMPI PUSH2 0x3AE PUSH2 0xB8E JUMP JUMPDEST JUMPDEST PUSH1 0x6 PUSH0 SWAP1 SLOAD SWAP1 PUSH2 0x100 EXP SWAP1 DIV PUSH1 0xFF AND PUSH1 0x3 DUP2 GT ISZERO PUSH2 0x3D0 JUMPI PUSH2 0x3CF PUSH2 0xB8E JUMP JUMPDEST JUMPDEST SUB PUSH2 0x41D JUMPI CALLER SWAP2 POP PUSH1 0x7 PUSH0 CALLER PUSH20 0xFFFFFFFFFFFFFFFFFFFFFFFFFFFFFFFFFFFFFFFF AND PUSH20 0xFFFFFFFFFFFFFFFFFFFFFFFFFFFFFFFFFFFFFFFF AND DUP2 MSTORE PUSH1 0x20 ADD SWAP1 DUP2 MSTORE PUSH1 0x20 ADD PUSH0 KECCAK256 SLOAD SWAP1 POP PUSH2 0x5BF JUMP JUMPDEST PUSH0 DUP1 SLOAD SWAP1 PUSH2 0x100 EXP SWAP1 DIV PUSH20 0xFFFFFFFFFFFFFFFFFFFFFFFFFFFFFFFFFFFFFFFF AND PUSH20 0xFFFFFFFFFFFFFFFFFFFFFFFFFFFFFFFFFFFFFFFF AND CALLER PUSH20 0xFFFFFFFFFFFFFFFFFFFFFFFFFFFFFFFFFFFFFFFF AND SUB PUSH2 0x49B JUMPI PUSH0 DUP1 SLOAD SWAP1 PUSH2 0x100 EXP SWAP1 DIV PUSH20 0xFFFFFFFFFFFFFFFFFFFFFFFFFFFFFFFFFFFFFFFF AND SWAP2 POP PUSH1 0x4 SLOAD SWAP1 POP PUSH2 0x5BE JUMP JUMPDEST PUSH1 0x1 PUSH0 SWAP1 SLOAD SWAP1 PUSH2 0x100 EXP SWAP1 DIV PUSH20 0xFFFFFFFFFFFFFFFFFFFFFFFFFFFFFFFFFFFFFFFF AND PUSH20 0xFFFFFFFFFFFFFFFFFFFFFFFFFFFFFFFFFFFFFFFF AND CALLER PUSH20 0xFFFFFFFFFFFFFFFFFFFFFFFFFFFFFFFFFFFFFFFF AND SUB PUSH2 0x579 JUMPI PUSH1 0x1 PUSH0 SWAP1 SLOAD SWAP1 PUSH2 0x100 EXP SWAP1 DIV PUSH20 0xFFFFFFFFFFFFFFFFFFFFFFFFFFFFFFFFFFFFFFFF AND SWAP2 POP PUSH1 0x7 PUSH0 PUSH1 0x1 PUSH0 SWAP1 SLOAD SWAP1 PUSH2 0x100 EXP SWAP1 DIV PUSH20 0xFFFFFFFFFFFFFFFFFFFFFFFFFFFFFFFFFFFFFFFF AND PUSH20 0xFFFFFFFFFFFFFFFFFFFFFFFFFFFFFFFFFFFFFFFF AND PUSH20 0xFFFFFFFFFFFFFFFFFFFFFFFFFFFFFFFFFFFFFFFF AND DUP2 MSTORE PUSH1 0x20 ADD SWAP1 DUP2 MSTORE PUSH1 0x20 ADD PUSH0 KECCAK256 SLOAD SWAP1 POP PUSH2 0x5BD JUMP JUMPDEST CALLER SWAP2 POP PUSH1 0x7 PUSH0 CALLER PUSH20 0xFFFFFFFFFFFFFFFFFFFFFFFFFFFFFFFFFFFFFFFF AND PUSH20 0xFFFFFFFFFFFFFFFFFFFFFFFFFFFFFFFFFFFFFFFF AND DUP2 MSTORE PUSH1 0x20 ADD SWAP1 DUP2 MSTORE PUSH1 0x20 ADD PUSH0 KECCAK256 SLOAD SWAP1 POP JUMPDEST JUMPDEST JUMPDEST PUSH0 PUSH1 0x7 PUSH0 CALLER PUSH20 0xFFFFFFFFFFFFFFFFFFFFFFFFFFFFFFFFFFFFFFFF AND PUSH20 0xFFFFFFFFFFFFFFFFFFFFFFFFFFFFFFFFFFFFFFFF AND DUP2 MSTORE PUSH1 0x20 ADD SWAP1 DUP2 MSTORE PUSH1 0x20 ADD PUSH0 KECCAK256 DUP2 SWAP1 SSTORE POP DUP2 PUSH20 0xFFFFFFFFFFFFFFFFFFFFFFFFFFFFFFFFFFFFFFFF AND PUSH2 0x8FC DUP3 SWAP1 DUP2 ISZERO MUL SWAP1 PUSH1 0x40 MLOAD PUSH0 PUSH1 0x40 MLOAD DUP1 DUP4 SUB DUP2 DUP6 DUP9 DUP9 CALL SWAP4 POP POP POP POP ISZERO DUP1 ISZERO PUSH2 0x644 JUMPI RETURNDATASIZE PUSH0 DUP1 RETURNDATACOPY RETURNDATASIZE PUSH0 REVERT JUMPDEST POP POP POP JUMP JUMPDEST PUSH0 DUP1 SLOAD SWAP1 PUSH2 0x100 EXP SWAP1 DIV PUSH20 0xFFFFFFFFFFFFFFFFFFFFFFFFFFFFFFFFFFFFFFFF AND PUSH20 0xFFFFFFFFFFFFFFFFFFFFFFFFFFFFFFFFFFFFFFFF AND CALLER PUSH20 0xFFFFFFFFFFFFFFFFFFFFFFFFFFFFFFFFFFFFFFFF AND SUB PUSH2 0x6D6 JUMPI PUSH1 0x40 MLOAD PUSH32 0x8C379A000000000000000000000000000000000000000000000000000000000 DUP2 MSTORE PUSH1 0x4 ADD PUSH2 0x6CD SWAP1 PUSH2 0xC74 JUMP JUMPDEST PUSH1 0x40 MLOAD DUP1 SWAP2 SUB SWAP1 REVERT JUMPDEST PUSH1 0x2 SLOAD NUMBER GT PUSH2 0x6E3 JUMPI PUSH0 DUP1 REVERT JUMPDEST PUSH1 0x3 SLOAD NUMBER LT PUSH2 0x6F0 JUMPI PUSH0 DUP1 REVERT JUMPDEST PUSH1 0x1 PUSH1 0x3 DUP2 GT ISZERO PUSH2 0x704 JUMPI PUSH2 0x703 PUSH2 0xB8E JUMP JUMPDEST JUMPDEST PUSH1 0x6 PUSH0 SWAP1 SLOAD SWAP1 PUSH2 0x100 EXP SWAP1 DIV PUSH1 0xFF AND PUSH1 0x3 DUP2 GT ISZERO PUSH2 0x725 JUMPI PUSH2 0x724 PUSH2 0xB8E JUMP JUMPDEST JUMPDEST EQ PUSH2 0x72E JUMPI PUSH0 DUP1 REVERT JUMPDEST PUSH8 0xDE0B6B3A7640000 CALLVALUE GT PUSH2 0x741 JUMPI PUSH0 DUP1 REVERT JUMPDEST PUSH0 CALLVALUE PUSH1 0x7 PUSH0 CALLER PUSH20 0xFFFFFFFFFFFFFFFFFFFFFFFFFFFFFFFFFFFFFFFF AND PUSH20 0xFFFFFFFFFFFFFFFFFFFFFFFFFFFFFFFFFFFFFFFF AND DUP2 MSTORE PUSH1 0x20 ADD SWAP1 DUP2 MSTORE PUSH1 0x20 ADD PUSH0 KECCAK256 SLOAD PUSH2 0x78B SWAP2 SWAP1 PUSH2 0xCBF JUMP JUMPDEST SWAP1 POP PUSH1 0x4 SLOAD DUP2 GT PUSH2 0x79A JUMPI PUSH0 DUP1 REVERT JUMPDEST DUP1 PUSH1 0x7 PUSH0 CALLER PUSH20 0xFFFFFFFFFFFFFFFFFFFFFFFFFFFFFFFFFFFFFFFF AND PUSH20 0xFFFFFFFFFFFFFFFFFFFFFFFFFFFFFFFFFFFFFFFF AND DUP2 MSTORE PUSH1 0x20 ADD SWAP1 DUP2 MSTORE PUSH1 0x20 ADD PUSH0 KECCAK256 DUP2 SWAP1 SSTORE POP PUSH1 0x7 PUSH0 PUSH1 0x1 PUSH0 SWAP1 SLOAD SWAP1 PUSH2 0x100 EXP SWAP1 DIV PUSH20 0xFFFFFFFFFFFFFFFFFFFFFFFFFFFFFFFFFFFFFFFF AND PUSH20 0xFFFFFFFFFFFFFFFFFFFFFFFFFFFFFFFFFFFFFFFF AND PUSH20 0xFFFFFFFFFFFFFFFFFFFFFFFFFFFFFFFFFFFFFFFF AND DUP2 MSTORE PUSH1 0x20 ADD SWAP1 DUP2 MSTORE PUSH1 0x20 ADD PUSH0 KECCAK256 SLOAD DUP2 LT ISZERO PUSH2 0x8C2 JUMPI PUSH2 0x8B7 PUSH1 0x5 SLOAD DUP3 PUSH2 0x853 SWAP2 SWAP1 PUSH2 0xCBF JUMP JUMPDEST PUSH1 0x7 PUSH0 PUSH1 0x1 PUSH0 SWAP1 SLOAD SWAP1 PUSH2 0x100 EXP SWAP1 DIV PUSH20 0xFFFFFFFFFFFFFFFFFFFFFFFFFFFFFFFFFFFFFFFF AND PUSH20 0xFFFFFFFFFFFFFFFFFFFFFFFFFFFFFFFFFFFFFFFF AND PUSH20 0xFFFFFFFFFFFFFFFFFFFFFFFFFFFFFFFFFFFFFFFF AND DUP2 MSTORE PUSH1 0x20 ADD SWAP1 DUP2 MSTORE PUSH1 0x20 ADD PUSH0 KECCAK256 SLOAD PUSH2 0xA81 JUMP JUMPDEST PUSH1 0x4 DUP2 SWAP1 SSTORE POP PUSH2 0x97E JUMP JUMPDEST PUSH2 0x937 DUP2 PUSH1 0x5 SLOAD PUSH1 0x7 PUSH0 PUSH1 0x1 PUSH0 SWAP1 SLOAD SWAP1 PUSH2 0x100 EXP SWAP1 DIV PUSH20 0xFFFFFFFFFFFFFFFFFFFFFFFFFFFFFFFFFFFFFFFF AND PUSH20 0xFFFFFFFFFFFFFFFFFFFFFFFFFFFFFFFFFFFFFFFF AND PUSH20 0xFFFFFFFFFFFFFFFFFFFFFFFFFFFFFFFFFFFFFFFF AND DUP2 MSTORE PUSH1 0x20 ADD SWAP1 DUP2 MSTORE PUSH1 0x20 ADD PUSH0 KECCAK256 SLOAD PUSH2 0x932 SWAP2 SWAP1 PUSH2 0xCBF JUMP JUMPDEST PUSH2 0xA81 JUMP JUMPDEST PUSH1 0x4 DUP2 SWAP1 SSTORE POP CALLER PUSH1 0x1 PUSH0 PUSH2 0x100 EXP DUP2 SLOAD DUP2 PUSH20 0xFFFFFFFFFFFFFFFFFFFFFFFFFFFFFFFFFFFFFFFF MUL NOT AND SWAP1 DUP4 PUSH20 0xFFFFFFFFFFFFFFFFFFFFFFFFFFFFFFFFFFFFFFFF AND MUL OR SWAP1 SSTORE POP JUMPDEST POP JUMP JUMPDEST PUSH1 0x6 PUSH0 SWAP1 SLOAD SWAP1 PUSH2 0x100 EXP SWAP1 DIV PUSH1 0xFF AND DUP2 JUMP JUMPDEST PUSH1 0x3 SLOAD DUP2 JUMP JUMPDEST PUSH1 0x4 SLOAD DUP2 JUMP JUMPDEST PUSH0 DUP1 SLOAD SWAP1 PUSH2 0x100 EXP SWAP1 DIV PUSH20 0xFFFFFFFFFFFFFFFFFFFFFFFFFFFFFFFFFFFFFFFF AND DUP2 JUMP JUMPDEST PUSH1 0x5 SLOAD DUP2 JUMP JUMPDEST PUSH0 DUP1 SLOAD SWAP1 PUSH2 0x100 EXP SWAP1 DIV PUSH20 0xFFFFFFFFFFFFFFFFFFFFFFFFFFFFFFFFFFFFFFFF AND PUSH20 0xFFFFFFFFFFFFFFFFFFFFFFFFFFFFFFFFFFFFFFFF AND CALLER PUSH20 0xFFFFFFFFFFFFFFFFFFFFFFFFFFFFFFFFFFFFFFFF AND EQ PUSH2 0xA55 JUMPI PUSH1 0x40 MLOAD PUSH32 0x8C379A000000000000000000000000000000000000000000000000000000000 DUP2 MSTORE PUSH1 0x4 ADD PUSH2 0xA4C SWAP1 PUSH2 0xD3C JUMP JUMPDEST PUSH1 0x40 MLOAD DUP1 SWAP2 SUB SWAP1 REVERT JUMPDEST PUSH1 0x3 PUSH1 0x6 PUSH0 PUSH2 0x100 EXP DUP2 SLOAD DUP2 PUSH1 0xFF MUL NOT AND SWAP1 DUP4 PUSH1 0x3 DUP2 GT ISZERO PUSH2 0xA7A JUMPI PUSH2 0xA79 PUSH2 0xB8E JUMP JUMPDEST JUMPDEST MUL OR SWAP1 SSTORE POP JUMP JUMPDEST PUSH0 DUP2 DUP4 GT PUSH2 0xA91 JUMPI DUP3 SWAP1 POP PUSH2 0xA95 JUMP JUMPDEST DUP2 SWAP1 POP JUMPDEST SWAP3 SWAP2 POP POP JUMP JUMPDEST PUSH0 DUP2 SWAP1 POP SWAP2 SWAP1 POP JUMP JUMPDEST PUSH2 0xAAD DUP2 PUSH2 0xA9B JUMP JUMPDEST DUP3 MSTORE POP POP JUMP JUMPDEST PUSH0 PUSH1 0x20 DUP3 ADD SWAP1 POP PUSH2 0xAC6 PUSH0 DUP4 ADD DUP5 PUSH2 0xAA4 JUMP JUMPDEST SWAP3 SWAP2 POP POP JUMP JUMPDEST PUSH0 PUSH20 0xFFFFFFFFFFFFFFFFFFFFFFFFFFFFFFFFFFFFFFFF DUP3 AND SWAP1 POP SWAP2 SWAP1 POP JUMP JUMPDEST PUSH0 PUSH2 0xAF5 DUP3 PUSH2 0xACC JUMP JUMPDEST SWAP1 POP SWAP2 SWAP1 POP JUMP JUMPDEST PUSH2 0xB05 DUP2 PUSH2 0xAEB JUMP JUMPDEST DUP3 MSTORE POP POP JUMP JUMPDEST PUSH0 PUSH1 0x20 DUP3 ADD SWAP1 POP PUSH2 0xB1E PUSH0 DUP4 ADD DUP5 PUSH2 0xAFC JUMP JUMPDEST SWAP3 SWAP2 POP POP JUMP JUMPDEST PUSH0 DUP1 REVERT JUMPDEST PUSH0 PUSH2 0xB32 DUP3 PUSH2 0xACC JUMP JUMPDEST SWAP1 POP SWAP2 SWAP1 POP JUMP JUMPDEST PUSH2 0xB42 DUP2 PUSH2 0xB28 JUMP JUMPDEST DUP2 EQ PUSH2 0xB4C JUMPI PUSH0 DUP1 REVERT JUMPDEST POP JUMP JUMPDEST PUSH0 DUP2 CALLDATALOAD SWAP1 POP PUSH2 0xB5D DUP2 PUSH2 0xB39 JUMP JUMPDEST SWAP3 SWAP2 POP POP JUMP JUMPDEST PUSH0 PUSH1 0x20 DUP3 DUP5 SUB SLT ISZERO PUSH2 0xB78 JUMPI PUSH2 0xB77 PUSH2 0xB24 JUMP JUMPDEST JUMPDEST PUSH0 PUSH2 0xB85 DUP5 DUP3 DUP6 ADD PUSH2 0xB4F JUMP JUMPDEST SWAP2 POP POP SWAP3 SWAP2 POP POP JUMP JUMPDEST PUSH32 0x4E487B7100000000000000000000000000000000000000000000000000000000 PUSH0 MSTORE PUSH1 0x21 PUSH1 0x4 MSTORE PUSH1 0x24 PUSH0 REVERT JUMPDEST PUSH1 0x4 DUP2 LT PUSH2 0xBCC JUMPI PUSH2 0xBCB PUSH2 0xB8E JUMP JUMPDEST JUMPDEST POP JUMP JUMPDEST PUSH0 DUP2 SWAP1 POP PUSH2 0xBDC DUP3 PUSH2 0xBBB JUMP JUMPDEST SWAP2 SWAP1 POP JUMP JUMPDEST PUSH0 PUSH2 0xBEB DUP3 PUSH2 0xBCF JUMP JUMPDEST SWAP1 POP SWAP2 SWAP1 POP JUMP JUMPDEST PUSH2 0xBFB DUP2 PUSH2 0xBE1 JUMP JUMPDEST DUP3 MSTORE POP POP JUMP JUMPDEST PUSH0 PUSH1 0x20 DUP3 ADD SWAP1 POP PUSH2 0xC14 PUSH0 DUP4 ADD DUP5 PUSH2 0xBF2 JUMP JUMPDEST SWAP3 SWAP2 POP POP JUMP JUMPDEST PUSH0 DUP3 DUP3 MSTORE PUSH1 0x20 DUP3 ADD SWAP1 POP SWAP3 SWAP2 POP POP JUMP JUMPDEST PUSH32 0x41756374696F6E204D616E616765722043616E6E6F7420626964000000000000 PUSH0 DUP3 ADD MSTORE POP JUMP JUMPDEST PUSH0 PUSH2 0xC5E PUSH1 0x1A DUP4 PUSH2 0xC1A JUMP JUMPDEST SWAP2 POP PUSH2 0xC69 DUP3 PUSH2 0xC2A JUMP JUMPDEST PUSH1 0x20 DUP3 ADD SWAP1 POP SWAP2 SWAP1 POP JUMP JUMPDEST PUSH0 PUSH1 0x20 DUP3 ADD SWAP1 POP DUP2 DUP2 SUB PUSH0 DUP4 ADD MSTORE PUSH2 0xC8B DUP2 PUSH2 0xC52 JUMP JUMPDEST SWAP1 POP SWAP2 SWAP1 POP JUMP JUMPDEST PUSH32 0x4E487B7100000000000000000000000000000000000000000000000000000000 PUSH0 MSTORE PUSH1 0x11 PUSH1 0x4 MSTORE PUSH1 0x24 PUSH0 REVERT JUMPDEST PUSH0 PUSH2 0xCC9 DUP3 PUSH2 0xA9B JUMP JUMPDEST SWAP2 POP PUSH2 0xCD4 DUP4 PUSH2 0xA9B JUMP JUMPDEST SWAP3 POP DUP3 DUP3 ADD SWAP1 POP DUP1 DUP3 GT ISZERO PUSH2 0xCEC JUMPI PUSH2 0xCEB PUSH2 0xC92 JUMP JUMPDEST JUMPDEST SWAP3 SWAP2 POP POP JUMP JUMPDEST PUSH32 0x4F6E6C792041756374696F6E204D616E616765722043616E20646F2074686973 PUSH0 DUP3 ADD MSTORE POP JUMP JUMPDEST PUSH0 PUSH2 0xD26 PUSH1 0x20 DUP4 PUSH2 0xC1A JUMP JUMPDEST SWAP2 POP PUSH2 0xD31 DUP3 PUSH2 0xCF2 JUMP JUMPDEST PUSH1 0x20 DUP3 ADD SWAP1 POP SWAP2 SWAP1 POP JUMP JUMPDEST PUSH0 PUSH1 0x20 DUP3 ADD SWAP1 POP DUP2 DUP2 SUB PUSH0 DUP4 ADD MSTORE PUSH2 0xD53 DUP2 PUSH2 0xD1A JUMP JUMPDEST SWAP1 POP SWAP2 SWAP1 POP JUMP INVALID LOG2 PUSH5 0x6970667358 0x22 SLT KECCAK256 PUSH7 0xDE82487661546 NOT PUSH16 0xC4B199DAF2BCF0891E4F66D5B0C36479 0x2B 0xCF POP DUP7 ISZERO SWAP11 PUSH5 0x736F6C6343 STOP ADDMOD BYTE STOP CALLER "
				},
				"gasEstimates": {
					"creation": {
						"codeDepositCost": "694400",
						"executionCost": "infinite",
						"totalCost": "infinite"
					},
					"external": {
						"Amounts(address)": "2847",
						"Auction()": "infinite",
						"AuctionCancel()": "26705",
						"AuctionResult()": "infinite",
						"AuctionState()": "2554",
						"HighestAmountraiser()": "2531",
						"HighestPayableAmount()": "2469",
						"IncrementAmount()": "2513",
						"auctionManager()": "2571",
						"etBlock()": "2447",
						"stBlock()": "2426"
					},
					"internal": {
						"min(uint256,uint256)": "63"
					}
				},
				"methodIdentifiers": {
					"Amounts(address)": "3e11fe79",
					"Auction()": "5fb3e119",
					"AuctionCancel()": "f8b4aaa7",
					"AuctionResult()": "5d7e8533",
					"AuctionState()": "87a0f296",
					"HighestAmountraiser()": "28a76ba5",
					"HighestPayableAmount()": "9806e31e",
					"IncrementAmount()": "c5389dbd",
					"auctionManager()": "b0192f9a",
					"etBlock()": "9495d224",
					"stBlock()": "0f200a4b"
				}
			},
			"storageLayout": {
				"storage": [
					{
						"astId": 3,
						"contract": "contracts/Iplcontract.sol:IPL_AUCTION_SMART_CONTRACT",
						"label": "auctionManager",
						"offset": 0,
						"slot": "0",
						"type": "t_address_payable"
					},
					{
						"astId": 5,
						"contract": "contracts/Iplcontract.sol:IPL_AUCTION_SMART_CONTRACT",
						"label": "HighestAmountraiser",
						"offset": 0,
						"slot": "1",
						"type": "t_address_payable"
					},
					{
						"astId": 7,
						"contract": "contracts/Iplcontract.sol:IPL_AUCTION_SMART_CONTRACT",
						"label": "stBlock",
						"offset": 0,
						"slot": "2",
						"type": "t_uint256"
					},
					{
						"astId": 9,
						"contract": "contracts/Iplcontract.sol:IPL_AUCTION_SMART_CONTRACT",
						"label": "etBlock",
						"offset": 0,
						"slot": "3",
						"type": "t_uint256"
					},
					{
						"astId": 11,
						"contract": "contracts/Iplcontract.sol:IPL_AUCTION_SMART_CONTRACT",
						"label": "HighestPayableAmount",
						"offset": 0,
						"slot": "4",
						"type": "t_uint256"
					},
					{
						"astId": 13,
						"contract": "contracts/Iplcontract.sol:IPL_AUCTION_SMART_CONTRACT",
						"label": "IncrementAmount",
						"offset": 0,
						"slot": "5",
						"type": "t_uint256"
					},
					{
						"astId": 21,
						"contract": "contracts/Iplcontract.sol:IPL_AUCTION_SMART_CONTRACT",
						"label": "AuctionState",
						"offset": 0,
						"slot": "6",
						"type": "t_enum(AuctionCurrentState)18"
					},
					{
						"astId": 25,
						"contract": "contracts/Iplcontract.sol:IPL_AUCTION_SMART_CONTRACT",
						"label": "Amounts",
						"offset": 0,
						"slot": "7",
						"type": "t_mapping(t_address,t_uint256)"
					}
				],
				"types": {
					"t_address": {
						"encoding": "inplace",
						"label": "address",
						"numberOfBytes": "20"
					},
					"t_address_payable": {
						"encoding": "inplace",
						"label": "address payable",
						"numberOfBytes": "20"
					},
					"t_enum(AuctionCurrentState)18": {
						"encoding": "inplace",
						"label": "enum IPL_AUCTION_SMART_CONTRACT.AuctionCurrentState",
						"numberOfBytes": "1"
					},
					"t_mapping(t_address,t_uint256)": {
						"encoding": "mapping",
						"key": "t_address",
						"label": "mapping(address => uint256)",
						"numberOfBytes": "32",
						"value": "t_uint256"
					},
					"t_uint256": {
						"encoding": "inplace",
						"label": "uint256",
						"numberOfBytes": "32"
					}
				}
			},
			"userdoc": {
				"kind": "user",
				"methods": {},
				"version": 1
			}
		}
	}
}